:020000040800F2
:1000000000000220D90601082D1B00082F1B000844
:10001000311B0008331B0008351B000841A60008EF
:10002000371B0008E1A60008CFA10008250701083A
:1000300025070108250701082507010825070108EC
:1000400025070108250701082507010825070108DC
:100050002507010825070108391B0008491B00086E
:1000600025070108250701082507010825070108BC
:100070002507010825070108591B0008691B00080E
:10008000250701082507010825070108250701089C
:10009000250701082507010825070108791B000825
:1000A000250701082507010825070108250701087C
:1000B000250701082507010825070108250701086C
:1000C00025070108891B0008991B0008250701085E
:1000D000250701082507010825070108250701084C
:1000E000250701082507010825070108250701083C
:1000F000250701082507010825070108A91B000895
:10010000250701082507010825070108B91B000874
:10011000C91B0008D91B0008E91B000825070108B6
:1001200025070108250701082507010825070108FB
:1001300025070108250701082507010825070108EB
:1001400025070108250701082507010825070108DB
:10015000250701082507010825070108F91B0008E4
:1001600025070108250701082507010825070108BB
:1001700025070108250701082507010825070108AB
:10018000250701082507010825070108250701089B
:10019000250701082507010825070108250701088B
:1001A000250701082507010825070108250701087B
:1001B000250701082507010825070108250701086B
:1001C000250701082507010825070108250701085B
:1001D000250701082507010825070108250701084B
:1001E000250701082507010825070108250701083B
:1001F000250701082507010825070108250701082B
:10020000250701082507010825070108250701081A
:10021000250701082507010825070108250701080A
:1002200025070108250701082507010825070108FA
:1002300025070108091C00082507010825070108F2
:10024000191C0008250701082507010825070108D2
:1002500008B50368B3F1804F00D008BD06F006FA78
:10026000FBE772B6FEE7000000B59DB04C2200210E
:1002700009A811F0C3FA2022002101A811F0BEFA4A
:10028000022006F099F9002300931F4B9A6922F48B
:1002900040429A619B6903F440430093009B1A4BD0
:1002A0009B6913F4005FFAD0012209924FF4803366
:1002B0000A930223129313931493282115911692F3
:1002C0000422179218930C23199300231A931B935B
:1002D00009A802F0C5FC98B93F23019303210291BC
:1002E0000390082304934023059306934FF4806200
:1002F0000792089301A803F08DF818B91DB000BD4E
:10030000FFF7AFFFFFF7ADFF0048025808B506F052
:100310007DF9FFF7A9FF002211464FF0FF3002F0F0
:10032000E3FB00F035F800F0F1F900F0B9FC00F063
:1003300045FA00F0A7FA00F033FF00F083FF00F069
:10034000B1F900F0E1FE00F04DFE00F001FB00F01D
:10035000C9FF00F089FE00F0D9FD01F023FD094B33
:100360001868094BA3FB0030800C0FF0CDFD074B44
:100370001B68984709F038FF00F044F909F046FF80
:10038000FEE700BF0400002083DE1B43580000206E
:10039000F0B58DB007AD00240794089409940A9431
:1003A0000B94424BD3F8E02042F01002C3F8E02057
:1003B000D3F8E02002F010020192019AD3F8E02075
:1003C00042F00402C3F8E020D3F8E02002F0040277
:1003D0000292029AD3F8E02042F08002C3F8E020B3
:1003E000D3F8E02002F080020392039AD3F8E020D1
:1003F00042F00102C3F8E020D3F8E02002F001024D
:100400000492049AD3F8E02042F00202C3F8E020FC
:10041000D3F8E02002F002020592059AD3F8E0201A
:1004200042F00802C3F8E020D3F8E03003F00803FC
:100430000693069B1E4E01224EF20901304604F03F
:10044000E9FC4FF4604307930127089709940A9445
:100450002946304604F0D6FB0923079308970994F0
:1004600003230A932946304604F0CCFB4FF4A053F3
:1004700007934FF488130893099429460D4804F014
:10048000C1FB4FF4005307930223089309940A9485
:1004900005230B932946084804F0B4FB21464FF08E
:1004A000006006F0F5F80DB0F0BD00BF0044025842
:1004B00000080258001002580004025808B5002233
:1004C000114632200EF0FCFC4FF4FA7009F01DFFCB
:1004D00032220A2108460EF0F3FC4FF4FA7009F0BC
:1004E00014FFECE708B50C4BDB680C4898470FF09D
:1004F000D3FD0B4C84ED000A0BF0A8FE0FF0CCFDF1
:10050000D4ED007A30EE670A064B83ED000A012035
:1005100009F0FBFEEBE700BF20000020AC0100204B
:10052000CC000020C800002008B50BF097FE072182
:1005300003480EF06FFF0A2009F0E7FEF5E700BF61
:10054000246F002008B50B480FF010F80FF0A4FD41
:10055000094C84ED000A0FF03BF80FF09DFDD4ED3F
:10056000007A30EE670A054B83ED000A012009F09E
:10057000CCFEEBE710040020C4000020C0000020E7
:1005800008B50BF01DFE0FF087FD094C84ED000A45
:100590000BF022FE0FF080FDD4ED007A30EE670AFA
:1005A000044B83ED000A012009F0AFFEEBE700BF2A
:1005B000BC000020B800002000B583B00BF0C6FEE0
:1005C0000BF0F6FD0BF0E6FD09F0C2F801900FF01C
:1005D00063FD0BF0E5FF0BF031FE0BF027FE0BF097
:1005E00003FE0BF015FE0BF039FE072104480EF058
:1005F00011FF0FF051FD012101A809F0BDF9E6E757
:10060000246F002008B5154A0021154809F01CFE8A
:10061000144B1860144A0021144809F015FE144BBD
:100620001860144A0021144809F00EFE134B18609C
:10063000134A0021134809F007FE134B1860134AB0
:100640000021134809F000FE124B1860124A0021E5
:10065000124809F0F9FD124B186008BDBC190108D9
:10066000BD040008E400002098190108E504000812
:10067000E00000207419010829050008DC000020B2
:100680005019010845050008D80000202C19010860
:1006900081050008D400002008190108B9050008E8
:1006A000D000002008B50A480A4B036001220271FD
:1006B0000023437108498160C36043618361026222
:1006C00002F026FA00B908BDFFF7CBFDFBE700BF3B
:1006D000E8000020004C0258B71DC10402680A4B14
:1006E0009A4200D0704782B0A3F50063D3F8E020AF
:1006F00042F40022C3F8E020D3F8E03003F40023F2
:100700000193019B02B07047004C025880B582B043
:1007100000AF294BD3F8D830274A43F00103C2F881
:10072000D830254BD3F8D83003F001037B607B68C9
:10073000214BD3F8D830204A43F00203C2F8D83016
:100740001D4BD3F8D83003F002033B603B68002216
:1007500005210B2002F0C8F90B2002F0D5F9002288
:1007600005210C2002F0C0F90C2002F0CDF9002286
:100770000521392002F0B8F9392002F0C5F900222C
:1007800005213A2002F0B0F93A2002F0BDF900222A
:1007900005213B2002F0A8F93B2002F0B5F9002228
:1007A00005213C2002F0A0F93C2002F0ADF900BF89
:1007B0000837BD4680BD00BF0044025880B500AF79
:1007C0002E4B2F4A1A602D4B00229A602B4B002291
:1007D000DA602A4B01221A74284B00225A74274BE4
:1007E00000229A74254B03225A61244B0A229A61F3
:1007F000224B1D22DA61214B0A221A621F4B03226F
:100800005A621E4B0A229A621C4B1D22DA621B4B53
:100810000A221A63194B00225A63184B01229A6369
:10082000164B0022DA63154B04221A64134B042280
:100830005A64124B00229A64104B0422DA640F4B64
:1008400000221A650D4B04225A650C4B00229A6552
:100850000A4B0022DA65094B04221A66074B002274
:100860005A66064B04229A66044806F077F8034657
:10087000002B01D0FFF7F5FC00BF80BD0C0100206C
:1008800000A0004080B500AF2F4B304A1A602E4BBD
:1008900000229A602C4B0022DA602B4B01221A7442
:1008A000294B00225A74284B00229A74264B0322AB
:1008B0005A61254B0A229A61234B1D22DA61224B91
:1008C0000A221A62204B03225A621F4B0A229A62A2
:1008D0001D4B1D22DA621C4B0A221A631A4B40F28E
:1008E00056325A63184B01229A63174B0022DA637F
:1008F000154B04221A64144B04225A64124B002232
:100900009A64114B0422DA640F4B00221A650E4BD5
:1009100004225A650C4B00229A650B4B0022DA65C3
:10092000094B04221A66084B00225A66064B042221
:100930009A66054806F012F80346002B01D0FFF72F
:1009400090FC00BF80BD00BFAC01002000A40040AF
:1009500080B500AF2F4B304A1A602E4B00229A60B0
:100960002C4B0022DA602B4B01221A74294B0022F7
:100970005A74284B00229A74264B03225A61254B45
:100980000A229A61234B1D22DA61224B0A221A6243
:10099000204B03225A621F4B0A229A621D4B1D22D2
:1009A000DA621C4B0A221A631A4B40F2AC625A6399
:1009B000184B01229A63174B0022DA63154B04226D
:1009C0001A64144B04225A64124B00229A64114B8D
:1009D0000422DA640F4B00221A650E4B04225A657A
:1009E0000C4B00229A650B4B0022DA65094B04225E
:1009F0001A66084B00225A66064B04229A6605487E
:100A000005F0ACFF0346002B01D0FFF72AFC00BF26
:100A100080BD00BF4C02002000D4004080B5BCB0B7
:100A200000AF786007F1DC0300221A605A609A6018
:100A3000DA601A6107F12003B8220021184610F08D
:100A4000DDFE7B681B688F4A934258D14FF4004209
:100A50004FF00003C7E908234FF08053C7F88C30EC
:100A600007F12003184603F07FF90346002B01D05D
:100A7000FFF7F7FB844B1B680133834A1360824BFB
:100A80001B68012B0ED1814BD3F8EC307F4A43F425
:100A90008073C2F8EC307D4BD3F8EC3003F48073F4
:100AA000FB61FB69794BD3F8E030784A43F00803E7
:100AB000C2F8E030754BD3F8E03003F00803BB61B7
:100AC000BB690323C7F8DC300223C7F8E0300023FA
:100AD000C7F8E4300023C7F8E8300923C7F8EC3042
:100AE00007F1DC0319466A4804F08CF8002205215E
:100AF000132001F0F9FF132002F006F8BEE07B6836
:100B00001B68644A93425BD14FF400424FF00003EC
:100B1000C7E908234FF08053C7F88C3007F1200352
:100B2000184603F021F90346002B01D0FFF799FB8B
:100B3000554B1B680133544A1360534B1B68012B00
:100B40000ED1524BD3F8EC30504A43F48073C2F8C4
:100B5000EC304E4BD3F8EC3003F480737B617B694F
:100B60004A4BD3F8E030494A43F00203C2F8E03080
:100B7000464BD3F8E03003F002033B613B6960234E
:100B8000C7F8DC300223C7F8E0300023C7F8E430B0
:100B90000023C7F8E8300923C7F8EC3007F1DC037D
:100BA00019463D4804F02EF8102005F07BFD002288
:100BB0000521142001F098FF142001F0A5FF5DE04D
:100BC0007B681B68354A934258D14FF400424FF07E
:100BD0000003C7E908234FF08053C7F88C3007F1B2
:100BE0002003184603F0C0F80346002B01D0FFF79E
:100BF00038FB254B1B680133234A1360224B1B68CB
:100C0000012B0ED1214BD3F8EC30204A43F48073F2
:100C1000C2F8EC301D4BD3F8EC3003F48073FB606A
:100C2000FB681A4BD3F8E030184A43F00803C2F8C7
:100C3000E030164BD3F8E03003F00803BB60BB682C
:100C40004FF44053C7F8DC300223C7F8E0300023EC
:100C5000C7F8E4300023C7F8E8300523C7F8EC30C4
:100C600007F1DC0319460A4803F0CCFF00220521F6
:100C70009F2001F039FF9F2001F046FF00BFF037B1
:100C8000BD4680BD00A00040EC0200200044025898
:100C9000000C025800A400400004025800D4004098
:100CA00080B500AF274B284A1A60264B4FF48002CC
:100CB0005A60244B4FF400329A60224B0322DA60D0
:100CC000204B00221A611F4B00225A611D4B4FF02E
:100CD00080629A611B4B0022DA611A4B00221A6271
:100CE000184B00225A62174B00229A62154B0022C1
:100CF000DA62144B4FF080425A63124B00229A631F
:100D0000104B0022DA630F4B00221A640D4B0022B5
:100D10005A640C4B00229A640A4B0022DA64094B95
:100D200000221A65074B00225A65064B00229A657D
:100D3000044806F087FB0346002B01D0FFF791FA29
:100D400000BF80BDF00200200014005880B5B8B08C
:100D500000AF786007F1CC0300221A605A609A60F5
:100D6000DA601A6107F11003B8220021184610F06A
:100D700045FD7B681B68274A934246D14FF4804269
:100D80004FF00003C7E904234FF0A043C7F8BC307D
:100D900007F11003184602F0E7FF0346002B01D0CD
:100DA000FFF75FFA1C4BD3F8F4301B4A43F02003E3
:100DB000C2F8F430184BD3F8F43003F02003FB6092
:100DC000FB68154BD3F8E030134A43F00103C2F837
:100DD000E030114BD3F8E03003F00103BB60BB6897
:100DE000A023C7F8CC300223C7F8D0300023C7F8BF
:100DF000D4300323C7F8D8300823C7F8DC3007F114
:100E0000CC031946054803F0FDFE00BFE037BD46A0
:100E100080BD00BF00140058004402580000025872
:100E200082B00368114A934204D0114A93420FD012
:100E300002B070470F4BD3F8F02042F00102C3F824
:100E4000F020D3F8F03003F001030093009BEFE7AC
:100E5000084BD3F8E82042F00202C3F8E820D3F8A8
:100E6000E83003F002030193019BE1E70000014039
:100E7000000400400044025800B589B000230393E9
:100E8000049305930693079303681B4A934204D087
:100E90001A4A93421AD009B000BD194BD3F8E0208A
:100EA00042F01002C3F8E020D3F8E03003F0100362
:100EB0000193019B4FF408530393022304930123EE
:100EC000079303A90F4803F09DFEE4E70C4BD3F80A
:100ED000E02042F00202C3F8E020D3F8E03003F053
:100EE00002030293029B022303930493079303A933
:100EF000054803F087FECEE70000014000040040F3
:100F000000440258001002580004025810B598B06E
:100F100000241594169417940E940F941094119421
:100F20001294139414943422214601A810F066FC04
:100F30002A482B4B0360446084604FF6FF73C36004
:100F400004614461846101F0A9FB002837D10023CA
:100F500015931693179315A9204801F0C1FC00289A
:100F600030D160230E9300220F92109211921292B0
:100F7000139214920EA9194801F012FC28BB082202
:100F80000EA9164801F00CFC10BB0023019302933C
:100F90000393049305934FF4005206920793099329
:100FA0004FF000720A920B930D9301A90B4801F0C8
:100FB000F1FC80B90948FFF75FFF18B010BDFFF7DB
:100FC00050F9C4E7FFF74DF9CBE7FFF74AF9D6E749
:100FD000FFF747F9D9E7FFF744F9EBE7C40300202F
:100FE0000000014000B58BB00023079308930993DC
:100FF0000093019302930393049305930693184877
:10100000184A026053224260836040F2CF72C2608D
:101010000361836101F042FBC0B900230793099388
:1010200007A90F4801F05CFC98B9602300930023E6
:101030000193029304930C226946094801F0B0FB26
:1010400050B90748FFF718FF0BB000BDFFF709F9CB
:10105000E3E7FFF706F9E8E7FFF703F9F1E700BF79
:10106000780300200004004080B500AF234B244AE1
:101070001A60224B234A5A60204B4FF480529A60E8
:101080001E4B4FF40052DA601C4B4FF480621A6121
:101090001A4B0C225A61194B00229A61174B0022FD
:1010A000DA61164B00221A62144B00225A62134B6B
:1010B00000229A62114807F09FFB0346002B01D0E3
:1010C000FFF7CFF800210D4807F0D7FC0346002BAF
:1010D00001D0FFF7C6F80021084807F0F3FC0346EB
:1010E000002B01D0FFF7BDF8044807F0A7FC03462A
:1010F000002B01D0FFF7B5F800BF80BD1004002021
:1011000000500040A086010080B500AF224B234A6A
:101110001A60214B4FF4E1325A601F4B00229A6053
:101120001D4B0022DA601C4B00221A611A4B0C2264
:101130005A61194B00229A61174B0022DA61164B53
:1011400000221A62144B00225A62134B00229A6248
:10115000114807F051FB0346002B01D0FFF781F83F
:1011600000210D4807F089FC0346002B01D0FFF752
:1011700078F80021084807F0A5FC0346002B01D0B1
:10118000FFF76FF8044807F059FC0346002B01D025
:10119000FFF767F800BF80BDA4040020007800407E
:1011A00080B500AF244B254A1A60234B244A5A606D
:1011B000214B00229A60204B0022DA601E4B002255
:1011C0001A611D4B0C225A611B4B00229A611A4B6B
:1011D0004FF40042DA61184B00221A62164B0022CB
:1011E0005A62154B00229A62002300220021124805
:1011F00007F0E0FB0346002B01D0FFF732F8002197
:101200000D4807F03AFC0346002B01D0FFF729F800
:101210000021094807F056FC0346002B01D0FFF7D8
:1012200020F8054807F00AFC0346002B01D0FFF721
:1012300018F800BF80BD00BF380500200044004002
:1012400000093D0080B500AF234B244A1A60224BB1
:10125000234A5A60204B00229A601F4B0022DA601A
:101260001D4B00221A611C4B0C225A611A4B0022A2
:101270009A61194B0022DA61174B00221A62164B51
:1012800000225A62144B00229A620023002200219D
:10129000114807F08FFB0346002B01D0FEF7E1FF5A
:1012A00000210D4807F0E9FB0346002B01D0FEF7B3
:1012B000D8FF0021084807F005FC0346002B01D0A9
:1012C000FEF7CFFF044807F0B9FB0346002B01D01F
:1012D000FEF7C7FF00BF80BDCC05002000480040DE
:1012E000003E490080B500AF224B234A1A60214BD3
:1012F0004FF4E1325A601F4B00229A601D4B0022CE
:10130000DA601C4B00221A611A4B0C225A61194BED
:1013100000229A61174B0022DA61164B00221A62F2
:10132000144B00225A62134B00229A62114807F0B4
:1013300063FA0346002B01D0FEF793FF00210D480E
:1013400007F09BFB0346002B01D0FEF78AFF00212C
:10135000084807F0B7FB0346002B01D0FEF781FFDA
:10136000044807F06BFB0346002B01D0FEF779FF22
:1013700000BF80BD60060020001C014080B5C2B0E7
:1013800000AF07F58473A3F58273186007F1F403C7
:1013900000221A605A609A60DA601A6107F1380315
:1013A000B8220021184610F029FA07F58473A3F536
:1013B00082731B681B68BC4A934240F0AC804FF0BC
:1013C00002024FF00003C7E90E230023C7F8AC3038
:1013D00007F13803184602F0C7FC0346002B01D082
:1013E000FEF73FFFB14BD3F8E830B04A43F4801327
:1013F000C2F8E830AD4BD3F8E83003F480137B63D8
:101400007B6BAA4BD3F8E030A84A43F00403C2F840
:10141000E030A64BD3F8E03003F004033B633B6BB2
:10142000A24BD3F8E030A14A43F00803C2F8E03001
:101430009E4BD3F8E03003F00803FB62FB6A4FF4E5
:101440008053C7F8F4300223C7F8F8300023C7F8F8
:10145000FC300023C7F800310823C7F8043107F136
:10146000F4031946924803F0CDFB0423C7F8F43087
:101470000223C7F8F8300023C7F8FC300023C7F870
:1014800000310823C7F8043107F1F40319468948ED
:1014900003F0B8FB884B894A1A60874B41225A6097
:1014A000854B00229A60844B0022DA60824B4FF415
:1014B00080621A61804B00225A617F4B00229A6140
:1014C0007D4B4FF48072DA617B4B4FF440321A62ED
:1014D000794B00225A62784803F0D8FE0346002B6D
:1014E00001D0FEF7BEFE07F58473A3F582731B6877
:1014F000714AC3F88020704A07F58473A3F582739C
:101500001B68936300220521352001F0EDFA352098
:1015100001F0FAFAF6E207F58473A3F582731B680B
:101520001B68674A934240F0D7804FF002024FF0A9
:101530000003C7E90E230023C7F8AC3007F13803D6
:10154000184602F011FC0346002B01D0FEF789FE7D
:10155000564BD3F8E830554A43F08043C2F8E830A0
:10156000524BD3F8E83003F08043BB62BB6A4F4B69
:10157000D3F8E0304D4A43F01003C2F8E0304B4B53
:10158000D3F8E03003F010037B627B6A4FF4C07342
:10159000C7F8F4300223C7F8F8300023C7F8FC304E
:1015A0000323C7F800310723C7F8043107F1F40318
:1015B0001946444803F026FB434B444A1A60424B09
:1015C0004F225A60404B00229A603F4B0022DA6063
:1015D0003D4B4FF480621A613B4B00225A613A4BFB
:1015E00000229A61384B4FF48072DA61364B4FF427
:1015F00040321A62344B00225A62334803F046FEEE
:101600000346002B01D0FEF72CFE07F58473A3F5EB
:1016100082731B682C4AC3F880202B4A07F5847319
:10162000A3F582731B689363294B2A4A1A60284BDF
:1016300050225A60264B40229A60254B0022DA60E5
:10164000234B4FF480621A61214B00225A61204BD8
:1016500000229A611E4B4FF48072DA611C4B4FF4EA
:1016600040321A621A4B00225A62194803F00EFEE9
:101670000346002B01D0FEF7F4FD07F58473A3F5B4
:1016800082731B68124ADA67114A07F58473A3F55F
:1016900082731B68936300220521522001F024FA13
:1016A000522001F031FA2DE200500040004402586F
:1016B00000080258000C0258F406002028000240DE
:1016C00000780040001002586C07002040040240DF
:1016D000E40700202804024007F58473A3F5827311
:1016E0001B681B688F4A934240F09C804FF00202B7
:1016F0004FF00003C7E90E230023C7F8AC3007F111
:101700003803184602F030FB0346002B01D0FEF7E9
:10171000A8FD854BD3F8E830834A43F40033C2F880
:10172000E830814BD3F8E83003F400333B623B6A86
:101730007D4BD3F8E0307C4A43F00803C2F8E03038
:10174000794BD3F8E03003F00803FB61FB69102309
:10175000C7F8F4300223C7F8F8300223C7F8FC308A
:101760000323C7F800310723C7F8043107F1F40356
:1017700019466E4803F046FA6023C7F8F430022396
:10178000C7F8F8300023C7F8FC300323C7F800314E
:101790000723C7F8043107F1F4031946634803F03F
:1017A00031FA634B634A1A60614B2B225A60604BDB
:1017B00000229A605E4B0022DA605D4B4FF480623B
:1017C0001A615B4B00225A61594B00229A61584BB7
:1017D0004FF48072DA61564B4FF440321A62544B28
:1017E00000225A62524803F051FD0346002B01D0FB
:1017F000FEF737FD07F58473A3F582731B684C4A27
:10180000C3F880204A4A07F58473A3F582731B68E6
:10181000936300220521262001F066F9262001F0BD
:1018200073F96FE107F58473A3F582731B681B6876
:10183000414A934240F084804FF002024FF000038F
:10184000C7E90E230023C7F8AC3007F13803184668
:1018500002F08AFA0346002B01D0FEF702FD324B5C
:10186000D3F8E830304A43F48023C2F8E8302E4BF6
:10187000D3F8E83003F48023BB61BB692A4BD3F86B
:10188000E030294A43F00203C2F8E030264BD3F897
:10189000E03003F002037B617B69234BD3F8E03037
:1018A000214A43F00803C2F8E0301F4BD3F8E03080
:1018B00003F008033B613B694FF48043C7F8F43001
:1018C0000223C7F8F8300223C7F8FC300323C7F817
:1018D00000310723C7F8043107F1F403194617480C
:1018E00003F090F94FF44073C7F8F4300223C7F8BF
:1018F000F8300023C7F8FC300323C7F80031072372
:10190000C7F8043107F1F4031946084803F07AF9DF
:1019100000220521272001F0E7F8272001F0F4F844
:10192000F0E000BF0044004000440258000C0258A0
:101930005C080020100002400048004000040258EB
:1019400007F58473A3F582731B681B68704A934282
:1019500040F0D8804FF001024FF00003C7E90E239A
:101960000023C7F8B03007F13803184602F0FCF93D
:101970000346002B01D0FEF774FC664BD3F8F03021
:10198000644A43F08003C2F8F030624BD3F8F03081
:1019900003F08003FB60FB685E4BD3F8E0305D4AE8
:1019A00043F01003C2F8E0305A4BD3F8E03003F0B4
:1019B000100207F58473A3F580731A6007F584732A
:1019C000A3F580731B680423C7F8F4300223C7F81B
:1019D000F8300023C7F8FC300023C7F80031042397
:1019E000C7F8043107F1F40319464B4803F00AF92C
:1019F0000823C7F8F4300223C7F8F8300023C7F8EB
:101A0000FC300023C7F800310B23C7F8043107F17D
:101A1000F4031946404803F0F5F8404B404A1A6079
:101A20003E4B76225A603D4B00229A603B4B00228F
:101A3000DA603A4B4FF480621A61384B00225A61E7
:101A4000364B00229A61354B0022DA61334B4FF45A
:101A500040321A62314B00225A62304803F016FCC1
:101A60000346002B01D0FEF7FCFB07F58473A3F5BA
:101A700082731B68294AC3F88020284A07F58473BB
:101A8000A3F582731B689363264B274A1A60254B84
:101A900077225A60234B40229A60224B0022DA6060
:101AA000204B4FF480621A611E4B00225A611D4B7D
:101AB00000229A611B4B0022DA611A4B4FF440322C
:101AC0001A62184B00225A62164803F0DFFB0346E5
:101AD000002B01D0FEF7C5FB07F58473A3F58273D5
:101AE0001B68104ADA670F4A07F58473A3F58273FF
:101AF0001B689363002205219C2000F0F5FF9C20C9
:101B000001F002F800BF07F58477BD4680BD00BF35
:101B1000001C01400044025800100258D408002064
:101B2000580402404C09002070040240FEE7FEE722
:101B3000FEE7FEE7FEE7704708B5024804F0A2F9A9
:101B400008BD00BF5C08002008B5024804F09AF9FF
:101B500008BD00BFF406002008B5024805F052FA9F
:101B600008BD00BF0C01002008B5024805F04AFA84
:101B700008BD00BFAC01002008B5024800F0FEFB24
:101B800008BD00BFC409002008B5024805F088FF61
:101B900008BD00BF3805002008B5024805F080FFE9
:101BA00008BD00BFCC05002008B5024805F078FF4D
:101BB00008BD00BF1004002008B5024804F062F917
:101BC00008BD00BFE407002008B5024804F05AF938
:101BD00008BD00BF6C07002008B5024804F052F9A8
:101BE00008BD00BFD408002008B5024804F04AF937
:101BF00008BD00BF4C09002008B5024805F050FFA1
:101C000008BD00BFA404002008B5024805F048FF45
:101C100008BD00BF6006002008B5024805F0F2F9D3
:101C200008BD00BF4C02002000B583B00A4BD3F8BA
:101C3000F42042F00202C3F8F420D3F8F43003F0A9
:101C400002030193019B00220F216FF0010000F0BD
:101C50004BFF03B000BD00BF004402580F2801D95C
:101C60000120704710B58AB00446002201461C20AE
:101C700000F03AFF1C2000F047FF1B4B1C601B4B81
:101C8000D3F8E82042F00102C3F8E820D3F8E830A6
:101C900003F001030093009B01A902A801F01AFFC1
:101CA000079BC3B901F0EAFE0346114AA2FB0323D6
:101CB0009B0C013B0F484FF08042026040F2E7323C
:101CC000C260436000230361836000F0B7FC30B161
:101CD00001200AB010BD01F0D1FE4300E5E7054840
:101CE00000F0F8FAF5E700BF0C00002000440258AD
:101CF00083DE1B43C4090020224AD2F8883043F413
:101D00007003C2F88830204B1B6803F00F03062BCA
:101D100006D81D4A136823F00F0343F0070313602E
:101D20001A4B1A6842F001021A6000221A611968FF
:101D3000174A0A401A60144B1B6813F0080F06D0AC
:101D4000114A136823F00F0343F0070313600F4B8E
:101D500000229A61DA611A620E4999620E49D962CB
:101D60000E4919635A639963DA6319645A641968EE
:101D700021F4802119601A66094B43F2D2021A60DD
:101D8000704700BF00ED00E0002000520044025800
:101D90007FEDF6EA000202020000FF01800201016D
:101DA00000400052714B1B6903F03803102B00F008
:101DB000DB8006D8002B58D0082B40F0CE806C4A30
:101DC00059E0182B40F0C980684B996A01F0030173
:101DD000D3F828C0CCF30512D86A00F001005B6B81
:101DE000C3F3CC0300FB03F307EE903AF8EE677AF7
:101DF0001CF47C7F3FD0012951D002296CD00029EE
:101E000040F0878059480168C1F3C101594BCB406C
:101E100007EE103AF8EE476A07EE102AB8EE476A66
:101E200086EE867A036BC3F3080306EE903AF8EE6B
:101E3000666A9FED516A67EE867A76EEA77AF7EECC
:101E4000006A77EEA67A27EE277A484B1B6BC3F31E
:101E50004623013307EE903AF8EE677AC7EE276A19
:101E6000FCEEE67A17EE902A05E0404B1B68C3F3C0
:101E7000C103404ADA403D488369C3F303233F4925
:101E8000CB5CDA40836903F00F03CB5C03F01F03E4
:101E900022FA03F33A490B603A4B1A60704707EE97
:101EA000102AF8EE476A9FED386A86EE267A2F4BA5
:101EB0001B6BC3F3080306EE903AF8EE666A9FEDDB
:101EC0002E6A67EE867A76EEA77AF7EE006A77EEEC
:101ED000A67A27EE277AB8E707EE102AF8EE476AC7
:101EE0009FED2A6A86EE267A204B1B6BC3F308030C
:101EF00006EE903AF8EE666A9FED1F6A67EE867A04
:101F000076EEA77AF7EE006A77EEA67A27EE277AC2
:101F10009BE716480168C1F3C101164BCB4007EEA1
:101F2000103AF8EE476A07EE102AB8EE476A86EED6
:101F3000867A036BC3F3080306EE903AF8EE666AFE
:101F40009FED0D6A67EE867A76EEA77AF7EE006A65
:101F500077EEA67A27EE277A77E7044B1B68C3F360
:101F6000C103044ADA4086E7094A84E7004402587C
:101F700000093D000090D00300000039E01901087D
:101F800000000020040000200024744A001BB74B0E
:101F900000366E0108B503460D4A0E490E4800682A
:101FA00040B10D4800680344521A934208D80A4AC7
:101FB000136008BD0848DFF824C0C0F800C0F0E78F
:101FC0000FF034FC0C2303604FF0FF30F1E700BF4B
:101FD0000000022000080000100A0020907200207B
:101FE00030B5026A036A23F0010303624468D0F843
:101FF00018C0234B0CEA03030D6845EA030E22F0D8
:1020000002028B6813431F4ADFF888C0604518BF7F
:1020100090420CBF0122002211D00CF5804C60458B
:1020200014BF4FF0000C4FF0010C174DA84206D022
:10203000BCF1000F03D1DFF858C0604505D123F093
:102040000803CD682B4323F0040362B90F4A904282
:1020500014BF00220122DFF830C0604503D012B95E
:102060000B4A904205D124F440744A6922438C699A
:1020700014434460C0F818E04A684263036230BD0C
:102080008CFFFEFF00000140004001400044014081
:10209000004801400004014010B58C46036A026A02
:1020A00022F480720262D0F804E0C1691D4A0A403D
:1020B000DCF80040144323F40073DCF8082043EA02
:1020C0000223194A1949884218BF90420CBF0122C5
:1020D000002207D123F40063DCF80C1043EA01234B
:1020E00023F480635AB9124A904214BF002201229D
:1020F0001049884203D012B90F4A904209D12EF4F8
:102100004052DCF8141042EA0112DCF8181042EADE
:10211000011EC0F804E0C461DCF80420C26303625D
:1021200010BD00BF8CFFFEFF000001400004014015
:1021300000440140004001400048014010B5036ADE
:10214000026A22F480520262D0F804C0D0F81CE087
:10215000184A0EEA02020C6842EA042223F40053F1
:102160008C6843EA0433DFF854E0134C704518BF21
:10217000A04212D00EF5804E704514BF4FF0000EF5
:102180004FF0010E04F58044A04206D0BEF1000FCE
:1021900003D1DFF82CE0704504D12CF4804C4C695D
:1021A0004CEA841CC0F804C0C2614A68026403623D
:1021B00010BD00BFFF8CFFFE000001400004014085
:1021C0000048014030B5036A026A22F4803202629C
:1021D0004268446DDFF860C004EA0C0C0C6844EA05
:1021E0000C0423F400338D6843EA0543DFF84CE028
:1021F000DFF84CC0604518BF704512D00CF5804C1C
:10220000604514BF4FF0000C4FF0010C0EF5804EEE
:10221000704506D0BCF1000F03D1DFF828C060453F
:1022200004D122F480324D6942EA052242604465BD
:102230004A688265036230BD8FFFFEFF00000140E7
:10224000000401400048014010B5036A026A22F40C
:1022500080120262D0F804C0D0F854E0184A0EEAA6
:1022600002020C6842EA042223F400138C6843EA59
:102270000453DFF854E0134C704518BFA04212D04D
:102280000EF5804E704514BF4FF0000E4FF0010E5A
:1022900004F58044A04206D0BEF1000F03D1DFF860
:1022A0002CE0704504D12CF4802C4C694CEA842C31
:1022B000C0F804C042654A68C265036210BD00BF31
:1022C000FF8FFFFE00000140000401400048014074
:1022D0007047000090F83D30012B42D1022380F876
:1022E0003D300268D36843F00103D36003681F4A9E
:1022F000B3F1804F18BF934225D0A2F57C429342A0
:1023000021D002F5806293421DD002F58062934293
:1023100019D002F57842934215D0A2F56C4293424F
:1023200011D002F5943293420DD0A2F5C0429342EF
:1023300009D002F58062934205D01A6842F001028A
:102340001A60002070479968094A0A40062A18BF97
:10235000B2F5803F07D01A6842F001021A600020EF
:102360007047012070470020704700BF0000014007
:1023700007000100704770477047704770B504460A
:102380000368DE681D6915F0020F10D016F0020F09
:102390000DD06FF002021A610123037703689B6975
:1023A00013F0030F67D0FFF7E6FF0023237715F044
:1023B000040F12D016F0040F0FD023686FF0040240
:1023C0001A610223237723689B6913F4407F58D056
:1023D0002046FFF7D0FF0023237715F0080F12D017
:1023E00016F0080F0FD023686FF008021A6104235B
:1023F00023772368DB6913F0030F49D02046FFF7EA
:10240000BAFF0023237715F0100F12D016F0100F2B
:102410000FD023686FF010021A6108232377236816
:10242000DB6913F4407F3AD02046FFF7A4FF002376
:10243000237715F0010F02D016F0010F36D115F0F9
:10244000800F02D115F4005F02D016F0800F35D155
:1024500015F4807F02D016F0800F37D115F0400FB1
:1024600002D016F0400F39D115F0200F02D016F02F
:10247000200F3BD170BDFFF77DFF2046FFF77CFFAB
:1024800093E72046FFF776FF2046FFF775FFA2E7A8
:102490002046FFF76FFF2046FFF76EFFB1E72046AB
:1024A000FFF768FF2046FFF767FFC0E723686FF07C
:1024B00001021A612046FDF7CBFEC0E723686FF4E6
:1024C00002521A61204600F0B6FAC1E723686FF4A1
:1024D00080721A61204600F0AFFABFE723686FF000
:1024E00040021A612046FFF748FFBDE723686FF0FE
:1024F00020021A61204600F09DFABBE710B58C4619
:102500000368464A904214BF00220122B0F1804F76
:1025100014BF114642F00101F1B9DFF808E170453E
:1025200014BF4FF0000E4FF0010E3D4CA04213D0EF
:10253000BEF1000F10D10EF1804E0EF5823E7045B7
:1025400014BF4FF0000E4FF0010E04F50064A042DE
:1025500002D0BEF1000F04D023F07003DCF8044079
:10256000234369BB2F49884214BF00210121DFF8B2
:10257000B0E0704524D019BB01F1804101F58231F2
:10258000884214BF002101210EF5006E704517D05E
:10259000B1B92549884214BF002101210EF59A3EA8
:1025A00070450DD061B92149884214BF0021012135
:1025B0000EF5006E704503D011B91D49884204D153
:1025C00023F44073DCF80C100B4323F08003DCF899
:1025D00014100B43DCF80810C162DCF800108162B3
:1025E0001449884208BF42F0010262B90E4A904283
:1025F00014BF0022012201F57051884203D012B9A4
:102600000D4A904202D1DCF810200263026842F0C9
:102610000402026001224261036010BD000001401B
:1026200000040040000800400044014000E0004079
:1026300000E40040000401400048014060B310B5D0
:10264000044690F83D3013B3022384F83D30214610
:1026500051F8040BFFF752FF012384F8483084F847
:102660003E3084F83F3084F8403084F8413084F8BC
:10267000423084F8433084F8443084F8453084F89C
:10268000463084F8473084F83D30002010BD80F893
:102690003C30FFF71DFED7E70120704760B310B54F
:1026A000044690F83D3013B3022384F83D302146B0
:1026B00051F8040BFFF722FF012384F8483084F817
:1026C0003E3084F83F3084F8403084F8413084F85C
:1026D000423084F8433084F8443084F8453084F83C
:1026E000463084F8473084F83D30002010BD80F833
:1026F0003C30FEF795FBD7E70120704710B58E46BA
:10270000036A026A22F010020262D0F804C08169F2
:102710001D4C0C40DEF8001044EA012423F0200395
:10272000DEF8082043EA0213184A1949884218BF04
:1027300090420CBF0122002207D123F08003DEF873
:102740000C1043EA011323F040035AB9114A904296
:1027500014BF002201221049884203D012B90F4A47
:10276000904209D12CF4406CDEF814204CEA820C23
:10277000DEF818204CEA820CC0F804C08461DEF850
:1027800004208263036210BDFF8CFFFE0000014045
:102790000004014000440140004001400048014065
:1027A00038B590F83C30012B00F0988004460123A6
:1027B00080F83C300C2A66D01ED8042A38D0082A6B
:1027C0004CD0BAB90D460068FFF70AFC226893693D
:1027D00043F0080393612268936923F00403936133
:1027E0002268936929690B4393610020002384F8D0
:1027F0003C3038BD1846F9E7102A5AD0142A15D1B2
:102800000D460068FFF720FD2268536D43F4006316
:1028100053652268536D23F4806353652268536DBA
:10282000296943EA012353650020DFE70120DDE742
:102830000D460068FFF762FF2268936943F4006366
:1028400093612268936923F480639361226893699A
:10285000296943EA012393610020C7E70D46006818
:10286000FFF71AFC2268D36943F00803D36122689A
:10287000D36923F00403D3612268D36929690B4328
:10288000D3610020B2E70D460068FFF757FC2268CD
:10289000D36943F40063D3612268D36923F480636E
:1028A000D3612268D369296943EA0123D3610020F7
:1028B0009CE70D460068FFF785FC2268536D43F0E6
:1028C000080353652268536D23F00403536522689F
:1028D000536D29690B435365002087E7022088E781
:1028E00090F83C20012A4FD010B50346012280F811
:1028F0003C20022280F83D2002685068D2F808C0CF
:10290000DFF88CE0214C724518BFA24203D120F4BD
:1029100070004C68204320F070000C682043506029
:102920001A681A48B2F1804F18BF82421FD0A0F532
:102930007C4082421BD000F58060824217D000F5B7
:102940008060824213D000F5784082420FD0A0F51B
:102950006C4082420BD000F59430824207D0A0F543
:10296000C040824203D000F58060824205D12CF045
:10297000800C896841EA0C019160012283F83D20B6
:10298000002083F83C0010BD022070470000014089
:102990000004014090F83C30012B45D010B50246B0
:1029A000012380F83C30CB6823F4407388680343EC
:1029B00023F480634868034323F4006308680343F7
:1029C00023F480530869034323F400534869034305
:1029D00023F48043086B034323F47023886943EA9C
:1029E000004323F08053C86903431068DFF83CE0DC
:1029F000DFF83CC0604518BF704510D123F4700368
:102A00008C6A43EA045323F080730C6A234323F057
:102A100000734C6A234323F00053C96A0B43436499
:102A2000002082F83C0010BD0220704700000140E9
:102A3000000401407047704770470000002807DB22
:102A400000F01F02400901239340024A42F820305F
:102A5000704700BF00E100E0002804DB0901C9B2B3
:102A6000044B1954704700F00F000901C9B2024B22
:102A70001954704700E400E014ED00E000B500F0E8
:102A80000700A0F1030CBCF1040F07D8C0F1070E3A
:102A90000430062806D84FF0000C03E04FF0040E77
:102AA0004FF0000C4FF0FF3303FA0EF021EA000163
:102AB00001FA0CF103FA0CF322EA030241EA0200E4
:102AC00000BD00000649CB6823F4E0631B041B0C27
:102AD000000200F4E0600343024A1A43CA607047F0
:102AE00000ED00E00000FA0510B50446054BD8687B
:102AF000C0F30220FFF7C2FF01462046FFF7ACFFFC
:102B000010BD00BF00ED00E008B5FFF797FF08BD5E
:102B1000002838D010B50446437F1BB302236377E7
:102B200023791BBB2368194A5A612268936823F0F2
:102B300018039360637913BB23684FF0FF321A6167
:102B40002268936823F0600361690B4393602268F5
:102B5000936823F08003A1690B439360012363779B
:102B6000002010BD0377FDF7B9FDD7E7E268A16843
:102B7000204600F00DF80028DCD00120F1E72368A2
:102B800022691A61DCE70120704700BFB71DC1044C
:102B900080B487B000AFF860B9607A600023FB753D
:102BA0001F233B61BB6803F00103002B02D101230B
:102BB000FB753EE000BF3B695A1E3A61002B09D00D
:102BC0003B6903F01F03BA6822FA03F303F0010321
:102BD000002BF0D07B68182B0FD07B68182B1ED8E9
:102BE0007B68102B0FD07B68102B18D87B68002BCC
:102BF00018D07B68082B0CD011E03B69062B13D949
:102C00000123FB7510E03B69072B0FD90123FB75EE
:102C10000CE03B690F2B0BD90123FB7508E0012366
:102C2000FB7506E000BF04E000BF02E000BF00E06B
:102C300000BFFB7D002B0DD1FB681B68BA685A6191
:102C4000FB681B689B6823F01801FB681B687A68A7
:102C50000A439A60FB7D18461C37BD4680BC70470E
:102C600080B58CB000AF78607B68002B01D1012368
:102C7000C8E37B681B6803F00103002B00F087802A
:102C8000884B1B6903F03803FB62864B9B6ABB626F
:102C9000FB6A102B07D0FB6A182B10D1BB6A03F01C
:102CA0000303022B0BD17F4B1B6803F40033002B73
:102CB0006CD07B685B68002B68D10123A2E37B6842
:102CC0005B68B3F5803F06D1764B1B68754A43F4C9
:102CD000803313602EE07B685B68002B0CD1714B56
:102CE0001B68704A23F4803313606E4B1B686D4A77
:102CF00023F4802313601DE07B685B68B3F5A02F8D
:102D00000CD1684B1B68674A43F480231360654B02
:102D10001B68644A43F4803313600BE0614B1B680B
:102D2000604A23F4803313605E4B1B685D4A23F4D2
:102D3000802313607B685B68002B13D003F0A2FC38
:102D4000786208E003F09EFC02467B6AD31A642B8B
:102D500001D9032356E3534B1B6803F40033002BC4
:102D6000F0D014E003F08EFC786208E003F08AFCF7
:102D700002467B6AD31A642B01D9032342E3494BF1
:102D80001B6803F40033002BF0D100E000BF7B6828
:102D90001B6803F00203002B00F08C80414B1B6981
:102DA00003F038033B623F4B9B6AFB613B6A002B9D
:102DB00007D03B6A182B37D1FB6903F00303002BC4
:102DC00032D1384B1B6803F00403002B05D07B681D
:102DD000DB68002B01D1012314E3324B1B6823F085
:102DE00019027B68DB682F4913430B6003F04AFC30
:102DF000786208E003F046FC02467B6AD31A022B95
:102E000001D90323FEE2274B1B6803F00403002BC8
:102E1000F0D0244B5B6823F0FE427B681B691B06E5
:102E2000204913434B6045E07B68DB68002B26D0CC
:102E30001C4B1B6823F019027B68DB68194913439C
:102E40000B6003F01FFC786208E003F01BFC0246F5
:102E50007B6AD31A022B01D90323D3E2114B1B68DF
:102E600003F00403002BF0D00E4B5B6823F0FE420E
:102E70007B681B691B060B4913434B601AE0094B27
:102E80001B68084A23F00103136003F0FBFB786220
:102E90000AE003F0F7FB02467B6AD31A022B03D940
:102EA0000323AFE200440258964B1B6803F004036F
:102EB000002BEED17B681B6803F01003002B6AD057
:102EC000904B1B6903F03803BB618E4B9B6A7B619F
:102ED000BB69082B07D0BB69182B1BD17B6903F09A
:102EE0000303012B16D1874B1B6803F48073002B5F
:102EF00005D07B68DB69802B01D0012382E2814B06
:102F0000DB6823F07C527B681B6A1B067D491343F8
:102F1000CB6040E07B68DB69002B23D0794B1B68DA
:102F2000784A43F08003136003F0ACFB786208E05A
:102F300003F0A8FB02467B6AD31A022B01D90323B4
:102F400060E2704B1B6803F48073002BF0D06D4B74
:102F5000DB6823F07C527B681B6A1B0669491343BC
:102F6000CB6018E0674B1B68664A23F08003136050
:102F700003F088FB786208E003F084FB02467B6A7A
:102F8000D31A022B01D903233CE25E4B1B6803F4E6
:102F90008073002BF0D17B681B6803F00803002BC3
:102FA00036D07B685B69002B19D0564B5B6F554A56
:102FB00043F00103536703F065FB786208E003F018
:102FC00061FB02467B6AD31A022B01D9032319E263
:102FD0004C4B5B6F03F00203002BF0D018E0494B21
:102FE0005B6F484A23F00103536703F04BFB7862A1
:102FF00008E003F047FB02467B6AD31A022B01D993
:103000000323FFE13F4B5B6F03F00203002BF0D182
:103010007B681B6803F02003002B36D07B689B691C
:10302000002B19D0374B1B68364A43F4805313608A
:1030300003F028FB786208E003F024FB02467B6A79
:10304000D31A022B01D90323DCE12E4B1B6803F4B6
:103050000053002BF0D018E02A4B1B68294A23F4B8
:103060008053136003F00EFB786208E003F00AFB64
:1030700002467B6AD31A022B01D90323C2E1214BFA
:103080001B6803F40053002BF0D17B681B6803F02E
:103090000403002B00F086801B4B1B681A4A43F484
:1030A0008073136003F0EEFA786208E003F0EAFA46
:1030B00002467B6AD31A642B01D90323A2E1124B87
:1030C0001B6803F48073002BF0D07B689B68012B96
:1030D00006D10C4B1B6F0B4A43F00103136732E020
:1030E0007B689B68002B11D1064B1B6F054A23F0B0
:1030F00001031367034B1B6F024A23F0040313679A
:1031000021E000BF00440258004802587B689B68D9
:10311000052B0CD1834B1B6F824A43F004031367CA
:10312000804B1B6F7F4A43F0010313670BE07D4B1D
:103130001B6F7C4A23F0010313677A4B1B6F794A9C
:1031400023F0040313677B689B68002B15D003F002
:1031500099FA78620AE003F095FA02467B6AD31A7C
:1031600041F28832934201D903234BE16D4B1B6F2F
:1031700003F00203002BEED014E003F083FA786230
:103180000AE003F07FFA02467B6AD31A41F28832E2
:10319000934201D9032335E1624B1B6F03F0020315
:1031A000002BEED17B685B6A002B00F02A815D4B1F
:1031B0001B6903F03803182B00F0BA807B685B6A48
:1031C000022B40F09580574B1B68564A23F08073C2
:1031D000136003F057FA786208E003F053FA0246EE
:1031E0007B6AD31A022B01D903230BE14D4B1B68D9
:1031F00003F00073002BF0D14A4B9A6A4A4B1340FC
:103200007A68916A7A68D26A12010A43454913437F
:103210008B627B681B6B013BC3F308027B685B6BB3
:10322000013B5B029BB21A437B689B6B013B1B0417
:1032300003F4FE031A437B68DB6B013B1B0603F0C0
:10324000FE43384913430B63364BDB6A354A23F0A0
:103250000103D362334B5A6B344B13407A68926C40
:10326000D200304913434B632E4BDB6A23F00C0230
:103270007B681B6C2B491343CB622A4BDB6A23F020
:1032800002027B685B6C27491343CB62254BDB6AE8
:10329000244A43F48033D362224BDB6A214A43F44D
:1032A0000033D3621F4BDB6A1E4A43F48023D36290
:1032B0001C4BDB6A1B4A43F00103D362194B1B68AA
:1032C000184A43F08073136003F0DCF9786208E079
:1032D00003F0D8F902467B6AD31A022B01D90323E3
:1032E00090E0104B1B6803F00073002BF0D088E0D7
:1032F0000C4B1B680B4A23F08073136003F0C2F978
:10330000786208E003F0BEF902467B6AD31A022B0A
:1033100001D9032376E0034B1B6803F00073002BF5
:10332000F0D16EE0004402580CFCFFFF0700FFFFE5
:10333000364B9B6A3B61354B1B6BFB607B685B6A62
:10334000012B31D03B6903F003027B689B6A9A42F0
:103350002AD13B691B0903F03F027B68DB6A9A4272
:1033600022D1FB68C3F308027B681B6B013B9A42C6
:103370001AD1FB685B0A03F07F027B685B6B013B41
:103380009A4211D1FB681B0C03F07F027B689B6B98
:10339000013B9A4208D1FB681B0E03F07F027B6859
:1033A000DB6B013B9A4201D001232BE0174B5B6B97
:1033B000DB08C3F30C033B617B689B6C3A699A4260
:1033C0001FD0124BDB6A114A23F00103D36203F0D2
:1033D00059F9786200BF03F055F902467B6A9342BF
:1033E000F9D00A4B5A6B0A4B13407A68926CD200A0
:1033F000064913434B63054BDB6A044A43F0010360
:10340000D362002318463037BD4680BD00440258C1
:103410000700FFFF80B586B000AF786039607B6839
:10342000002B01D101239CE18A4B1B6803F00F03A1
:103430003A689A4210D9874B1B6823F00F028549DE
:103440003B6813430B60834B1B6803F00F033A6820
:103450009A4201D0012384E17B681B6803F00403D6
:10346000002B10D07B681A697B4B9B6903F07003BB
:103470009A4208D9784B9B6923F070027B681B69DC
:10348000754913438B617B681B6803F00803002BAD
:1034900010D07B685A69704BDB6903F070039A4265
:1034A00008D96D4BDB6923F070027B685B696A4960
:1034B0001343CB617B681B6803F01003002B10D013
:1034C0007B689A69644BDB6903F4E0639A4208D92C
:1034D000614BDB6923F4E0627B689B695E491343BF
:1034E000CB617B681B6803F02003002B10D07B6846
:1034F000DA69594B1B6A03F070039A4208D9564B9C
:103500001B6A23F070027B68DB69534913430B622B
:103510007B681B6803F00203002B10D07B68DA681D
:103520004D4B9B6903F00F039A4208D94A4B9B69A4
:1035300023F00F027B68DB68474913438B617B688C
:103540001B6803F00103002B55D0434B9B6923F408
:1035500070627B689B68404913438B617B685B6842
:10356000022B07D13C4B1B6803F40033002B21D105
:103570000123F6E07B685B68032B07D1364B1B68A1
:1035800003F00073002B15D10123EAE07B685B6830
:10359000012B07D1304B1B6803F48073002B09D13A
:1035A0000123DEE02C4B1B6803F00403002B01D148
:1035B0000123D6E0284B1B6923F007027B685B6878
:1035C000254913430B6103F05DF878610AE003F0CD
:1035D00059F802467B69D31A41F28832934201D9E5
:1035E0000323BEE01C4B1B6903F038027B685B6859
:1035F000DB009A42EBD17B681B6803F00203002BCF
:1036000010D07B68DA68144B9B6903F00F039A4271
:1036100008D2114B9B6923F00F027B68DB680E49CF
:1036200013438B610B4B1B6803F00F033A689A42FC
:1036300014D2084B1B6823F00F0206493B68134362
:103640000B60044B1B6803F00F033A689A4205D0E5
:10365000012386E000200052004402587B681B686A
:1036600003F00403002B10D07B681A693F4B9B6961
:1036700003F070039A4208D23C4B9B6923F070021E
:103680007B681B69394913438B617B681B6803F0B6
:103690000803002B10D07B685A69344BDB6903F0B8
:1036A00070039A4208D2314BDB6923F070027B68C9
:1036B0005B692E491343CB617B681B6803F01003E1
:1036C000002B10D07B689A69284BDB6903F4E06318
:1036D0009A4208D2254BDB6923F4E0627B689B6940
:1036E00022491343CB617B681B6803F02003002B46
:1036F00010D07B68DA691D4B1B6A03F070039A4295
:1037000008D21A4B1B6A23F070027B68DB691749E9
:1037100013430B6200F034F80246144B9B691B0AFA
:1037200003F00F031249CB5C03F01F0322FA03F3EB
:103730003B610E4B9B6903F00F030D4AD35C03F012
:103740001F033A6922FA03F30A4A13600A4A3B69E3
:1037500013600A4B1B681846FEF780FA0346FB739A
:10376000FB7B18461837BD4680BD00BF0044025899
:10377000E019010800000020040000200C000020D7
:1037800080B489B000AF9D4B1B6903F03803182B40
:1037900025D0182B00F22981102B1DD0102B00F200
:1037A0002481002B02D0082B13D01EE1934B1B6801
:1037B00003F02003002B09D0904B1B68DB0803F0BB
:1037C00003038F4A22FA03F3BB6111E18C4BBB6107
:1037D0000EE18C4BBB610BE18B4BBB6108E1874B6E
:1037E0009B6A03F003037B61844B9B6A1B0903F014
:1037F0003F033B61814BDB6A03F00103FB607F4BBE
:103800005B6BDB08C3F30C03FA6802FB03F307EE00
:10381000903AF8EE677AC7ED027A3B69002B00F028
:10382000E1807B69022B00F083807B69022B00F230
:10383000A1807B69002B03D07B69012B56D099E0D6
:103840006E4B1B6803F02003002B2DD06B4B1B68C5
:10385000DB0803F003036A4A22FA03F37B607B6808
:1038600007EE903AF8EE676A3B6907EE903AF8EE99
:10387000677A86EEA77A614B1B6BC3F3080307EEEA
:10388000903AF8EE676A97ED026ADFED605AC6EE8D
:10389000257A76EEA77AF7EE006A77EEA67A67EEDB
:1038A000277AC7ED077A87E03B6907EE903AF8EE92
:1038B000677ADFED576A86EEA77A504B1B6BC3F32E
:1038C000080307EE903AF8EE676A97ED026ADFEDBB
:1038D0004F5AC6EE257A76EEA77AF7EE006A77EEB3
:1038E000A67A67EE277AC7ED077A65E03B6907EEAF
:1038F000903AF8EE677ADFED476A86EEA77A3F4B9B
:103900001B6BC3F3080307EE903AF8EE676A97ED76
:10391000026ADFED3E5AC6EE257A76EEA77AF7EE1A
:10392000006A77EEA67A67EE277AC7ED077A43E05A
:103930003B6907EE903AF8EE677ADFED376A86EE7C
:10394000A77A2E4B1B6BC3F3080307EE903AF8EEF1
:10395000676A97ED026ADFED2D5AC6EE257A76EE9C
:10396000A77AF7EE006A77EEA67A67EE277AC7EDB8
:10397000077A21E03B6907EE903AF8EE677ADFEDCF
:10398000256A86EEA77A1D4B1B6BC3F3080307EE6F
:10399000903AF8EE676A97ED026ADFED1C5AC6EEC0
:1039A000257A76EEA77AF7EE006A77EEA67A67EECA
:1039B000277AC7ED077A00BF104B1B6B5B0A03F039
:1039C0007F0301333B603B6807EE903AB8EE677ABD
:1039D000D7ED076AC6EE877AFCEEE77A17EE903AE3
:1039E000BB6105E00023BB6102E0064BBB6100BF89
:1039F000BB6918462437BD4680BC70470044025856
:103A00000090D00300093D0000366E010000004622
:103A10000024744C0024744A001BB74B80B582B05C
:103A200000AFFFF7ADFE0246104B9B691B0A03F087
:103A30000F030F49CB5C03F01F0322FA03F37B60F3
:103A40000A4B9B6903F00F03094AD35C03F01F0381
:103A50007A6822FA03F3074A1360074A7B68136007
:103A6000044B1B6818460837BD4680BD0044025809
:103A7000E0190108000000200400002080B500AF1C
:103A8000FFF7CCFF0246064BDB691B0903F0070377
:103A90000449CB5C03F01F0322FA03F3184680BDF0
:103AA00000440258E019010880B500AFFFF7B6FFE7
:103AB0000246064BDB691B0A03F007030449CB5C93
:103AC00003F01F0322FA03F3184680BD0044025896
:103AD000E019010880B483B000AF786039607B687A
:103AE0003F221A601A4B1B6903F007027B685A6079
:103AF000174B9B6903F470627B689A60144B9B6957
:103B000003F00F027B68DA60114B9B6903F07002CF
:103B10007B681A610E4BDB6903F070027B685A61A7
:103B20000B4BDB6903F4E0627B689A61084B1B6A0C
:103B300003F070027B68DA61064B1B6803F00F022A
:103B40003B681A6000BF0C37BD4680BC704700BFA1
:103B50000044025800200052404B9B6A03F00303CC
:103B6000032B79D070B505460E463C4A136823F006
:103B70008063136002F086FD0446384B1B6813F027
:103B8000006F06D002F07EFD031B022BF5D9032047
:103B900070BD324B9A6A22F47C32296842EA0132C3
:103BA0009A626A68013AC2F30802A96801394902B7
:103BB00089B20A43E9680139090401F4FE010A43A4
:103BC00029690139090601F0FE410A439A63DA6A5C
:103BD00022F0C00269690A43DA62DA6A22F020023E
:103BE000A9690A43DA62DA6A22F01002DA62DA6B51
:103BF0006FF3CF02E96942EAC102DA63DA6A42F09E
:103C00001002DA62C6B9154AD36A43F40023D362BC
:103C1000124A136843F08063136002F033FD0446D8
:103C20000E4B1B6813F0006F14D102F02BFD001B2C
:103C30000228F5D90320ABE7012E05D0074AD36A45
:103C400043F40013D362E3E7044AD36A43F48013D6
:103C5000D362DDE700209BE7012070470044025853
:103C6000404B9B6A03F00303032B79D070B50546E4
:103C70000E463C4A136823F08053136002F002FDA5
:103C80000446384B1B6813F0005F06D002F0FAFCC4
:103C9000031B022BF5D9032070BD324B9A6A22F028
:103CA0007C72296842EA01529A626A68013AC2F358
:103CB0000802A9680139490289B20A43E968013951
:103CC000090401F4FE010A4329690139090601F0DA
:103CD000FE410A431A64DA6A22F4406269690A43BF
:103CE000DA62DA6A22F40072A9690A43DA62DA6AED
:103CF00022F48072DA625A6C6FF3CF02E96942EA09
:103D0000C1025A64DA6A42F48072DA62C6B9154AAC
:103D1000D36A43F48003D362124A136843F080539A
:103D2000136002F0AFFC04460E4B1B6813F0005FFB
:103D300014D102F0A7FC001B0228F5D90320ABE741
:103D4000012E05D0074AD36A43F08073D362E3E7BC
:103D5000044AD36A43F40003D362DDE700209BE703
:103D60000120704700440258F8B50446036813F078
:103D7000006F2FD0436EB3F5001F25D015D8E3B1E7
:103D8000B3F5801F0ED102210830FFF7E5FE05468E
:103D9000A5BB954A136D23F44013616E0B43136565
:103DA000002619E00126354616E0B3F5401F01D183
:103DB0000025EEE7012635460EE08B4AD36A43F430
:103DC0000033D3620025E4E702212830FFF748FFE3
:103DD0000546DDE700263546236813F4807F2ED0A4
:103DE000A36D022B23D00ED89BB1012B08D100214B
:103DF00004F10800FFF7B0FE05460FE02E46EBE7A2
:103E0000012635461BE0033B012B07D90126354629
:103E100015E0754AD36A43F40033D36275B9724A28
:103E2000136D23F00703A16D0B43136507E0002119
:103E300004F12800FFF714FF0546EFE72E4623683C
:103E400013F4806F2DD0D4F8A430B3F5800F3DD09B
:103E50000DD8C3B1B3F5001F06D1002104F108004D
:103E6000FFF77AFE054613E00126354619E0B3F563
:103E7000000F0DD0B3F5200F0AD0B3F5C00F07D057
:103E8000012635460DE0584AD36A43F40033D36225
:103E90001DBB554A936D23F46003D4F8A4100B4363
:103EA0009365236813F4006F37D0D4F8A830B3F1CA
:103EB000007F5ED016D80BB3B3F1807F0FD1002105
:103EC00004F10800FFF748FE05461CE0002104F15C
:103ED0002800FFF7C5FE0546DAE72E46E1E7012692
:103EE00035461AE0B3F1806F0DD0B3F1A06F0AD060
:103EF000B3F1407F07D0012635460EE03A4AD36A37
:103F000043F40033D362002D3AD1374A936D23F046
:103F1000E063D4F8A8100B439365236813F0007F87
:103F200013D0E36C202B35D02FD833B1102B29D1EF
:103F30002D4AD36A43F40033D36295BB2A4AD36C2B
:103F400023F03003E16C0B43D364236813F4805FE8
:103F50004DD0E36DB3F5005F3FD027D87BB3B3F509
:103F6000805F20D1002104F10800FFF7F5FD054630
:103F70002AE0002104F12800FFF772FE0546C2E79F
:103F80002E46CAE701263546DFE7302BD5D001267D
:103F90003546DAE7022104F10800FFF7DDFD0546AA
:103FA000CBE72E46D1E70126354620E0B3F5405F4A
:103FB0000AD0B3F5804F07D00126354617E00A4AEC
:103FC000D36A43F40033D36285B9074A136D23F4EF
:103FD000E043E16D0B43136509E0002104F1280083
:103FE000FFF73EFE0546EFE7004402582E462368E1
:103FF00013F4005F17D0236EB3F5003F51D044D8BF
:1040000043B1B3F5803F3DD1012104F10800FFF732
:10401000A3FD0546002D4BD1324A136D23F4E02356
:10402000216E0B431365236813F4804F19D0D4F825
:10403000AC30B3F1005F4CD03FD843B1B3F1805FF7
:1040400038D1012104F10800FFF786FD0546002D57
:1040500046D1244A936D23F0E043D4F8AC100B43CF
:104060009365236813F4004F4DD0E36EB3F1805F86
:104070003AD0B3F1005F00F07181002B39D00126F6
:10408000354640E001263546CDE7B3F5802FC1D057
:10409000B3F5A02FBED0B3F5403FBBD001263546C7
:1040A000C1E7012104F12800FFF7DAFD0546B1E779
:1040B0002E46B8E701263546D3E7B3F1804FC6D088
:1040C000B3F1A04FC3D0B3F1405FC0D00126354655
:1040D000C7E7012104F12800FFF7C2FD0546B6E756
:1040E0002E46BEE700440258AA4AD36A43F400337E
:1040F000D362002D40F03981A64A136D23F040535E
:10410000E16E0B431365236813F0807F18D0A36C16
:10411000022B00F0358100F22D813BB1012B40F0E4
:1041200026819C4AD36A43F40033D362002D40F0C9
:104130002E81984AD36C23F00303A16C0B43D36404
:10414000236813F4800F40F02781236813F0010FD8
:1041500019D0A36F102B00F0928100F2848143B13B
:10416000082B40F07D81012104F10800FFF7F4FCE9
:104170000546002D40F08A81864A536D23F03803AE
:10418000A16F0B435365236813F0020F19D0636FBF
:10419000022B00F0878100F27E8143B1012B40F0B9
:1041A0007781012104F10800FFF7D6FC0546002DB8
:1041B00040F07F81774A536D23F00703616F0B4313
:1041C0005365236813F0040F1BD0D4F89030022BF2
:1041D00000F07B8100F2728143B1012B40F06B81D2
:1041E000012104F10800FFF7B7FC0546002D40F05F
:1041F0007381684A936D23F00703D4F890100B4342
:104200009365236813F0200F1DD0D4F88C30B3F1E0
:10421000005F00F0758100F264814BB1B3F1805F03
:1042200040F05C81002104F10800FFF795FC054691
:10423000002D40F06C81574A536D23F0E043D4F8D1
:104240008C100B435365236813F0400F1DD0D4F836
:104250009830B3F5006F00F06E8100F25D814BB1D4
:10426000B3F5806F40F05581002104F10800FFF79D
:1042700073FC0546002D40F06581464A936D23F49A
:10428000E053D4F898100B439365236813F0800F24
:104290001DD0D4F89C30B3F5804F00F0678100F258
:1042A00056814BB1B3F5005F40F04E81002104F11F
:1042B0000800FFF751FC0546002D40F05E81354AAD
:1042C000936D23F46043D4F89C100B4393652368EB
:1042D00013F0080F0DD0D4F88030B3F5805F00F0F4
:1042E0004E812C4A536D23F44053D4F880100B4375
:1042F0005365236813F0100F0DD0D4F89430B3F544
:10430000807F00F04681234A936D23F44073D4F8F4
:1043100094100B439365236813F4002F00F04E8133
:10432000D4F8A030B3F5803F00F03D81B3F5003FF5
:1043300008D0002B40F03E81194604F10800FFF739
:104340000BFC0546002D40F03881124A936D23F492
:104350004033D4F8A0100B4393652FE1012104F101
:104360000800FFF7F9FB0546C3E62E46CBE601261B
:104370003546E5E6032B3FF4D9AE01263546DFE6A8
:10438000022104F10800FFF7E7FB0546CEE62E46C2
:10439000D6E600BF00440258AD4A136843F4807368
:1043A000136002F06FF90746A94B1B6813F4807F76
:1043B00005D102F067F9C01B6428F5D90325002D4B
:1043C0004AD1A44B1B6FD4F8B020534013F4407F64
:1043D0000CD0A04B1A6F22F44072196F41F4803157
:1043E0001967196F21F4803119671A67D4F8B03052
:1043F000B3F5807F15D08DBBD4F8B03003F4407294
:10440000B2F5407F1ED0934A136923F47C531361A5
:1044100090490B6FD4F8B020C2F30B0213430B6723
:1044200093E602F02FF907468A4B1B6F13F0020F39
:10443000E1D102F027F9C01B41F288339842F3D949
:104440000325D8E78348026922F47C52824901EAB5
:10445000131313430361DBE72E4676E62E4674E61C
:10446000012635468FE6202B3FF483AE282B3FF400
:1044700080AE182B3FF47DAE0126354683E6012140
:1044800004F12800FFF7ECFB054672E62E467AE6BB
:104490000126354695E6033B022B7FF688AE0126C2
:1044A00035468EE6012104F12800FFF7D9FB0546C9
:1044B0007DE62E4685E601263546A2E6033B022B25
:1044C0007FF694AE012635469BE6012104F12800D3
:1044D000FFF7C6FB054689E62E4692E601263546DD
:1044E000B1E6B3F1804F3FF4A3AEB3F1A04F3FF478
:1044F0009FAEB3F1405F3FF49BAE01263546A2E686
:10450000022104F12800FFF7ABFB054690E62E469A
:1045100099E601263546B8E6B3F5805F3FF4AAAECA
:10452000B3F5A05F3FF4A6AEB3F5406F3FF4A2AE83
:1045300001263546A9E6022104F12800FFF790FB89
:10454000054697E62E46A0E601263546BFE6B3F5BA
:10455000004F3FF4B1AEB3F5204F3FF4ADAEB3F52D
:10456000C04F3FF4A9AE01263546B0E6022104F162
:104570002800FFF775FB05469EE62E46A7E60221BA
:1045800004F12800FFF76CFB00283FF4AAAE0126D7
:10459000A7E6022104F12800FFF762FB00283FF4A0
:1045A000B2AE0126AFE6022104F12800FFF758FB66
:1045B0000546C7E60126354600E02E46236813F47B
:1045C000802F24D0D4F88430B3F5001F14D0B3F575
:1045D000401F07D0B3F5801F15D11E4AD36A43F49C
:1045E0000033D36295B91B4A536D23F44013D4F8BA
:1045F00084100B4353650AE0012104F12800FFF702
:104600002FFB0546EEE70126354600E02E462368DF
:1046100013F4803F06D0236D03B3B3F5803F2BD056
:1046200001263546236813F0005F2ED1236813F46A
:10463000003F44D0E36FB3F5807F32D02ED9B3F57D
:10464000007F33D0B3F5407F30D0012637E000BF84
:104650000048025800440258CFFFFF005F4AD36A67
:1046600043F40033D36275B95C4AD36C23F48033CE
:10467000216D0B43D364D5E7022104F10800FFF755
:104680006BFA0546EFE72E46CCE7022104F128003D
:10469000FFF7E6FA0028C9D00126C7E733B10126A3
:1046A0000DE04E4AD36A43F40033D362002D5CD14F
:1046B0004A4A536D23F44073E16F0B4353652368FB
:1046C00013F4801F06D0454A136D23F00043216F79
:1046D0000B431365236813F4001F06D03F4A136D84
:1046E00023F08073A16E0B431365236813F0804F92
:1046F00009D03A4B1A6922F400421A611A69D4F8B7
:10470000B4100A431A612368002B06DA334AD36CCB
:1047100023F04053616D0B43D364236813F4000FFF
:1047200007D02E4A536D23F44003D4F888100B436E
:104730005365636813F0010F19D1636813F0020F1A
:104740001ED1636813F0040F23D1636813F0080FC0
:1047500028D1636813F0100F2DD1636813F0200F78
:1047600032D106B101263046F8BD2E46A7E700211A
:1047700004F10800FFF7F0F90028DED00646DCE778
:10478000012104F10800FFF7E7F90028D9D0064617
:10479000D7E7022104F10800FFF7DEF90028D4D0A2
:1047A0000646D2E7002104F12800FFF759FA002855
:1047B000CFD00646CDE7012104F12800FFF750FADB
:1047C0000028CAD00646C8E7022104F12800FFF7F6
:1047D00047FA0028C5D00126C5E700BF00440258AB
:1047E00008B5FFF71BF9054B1B6AC3F30213044A14
:1047F000D35C03F01F03D84008BD00BF004402583B
:10480000E019010800B5794B9A6AD3F828C0CCF3B7
:10481000053ED96AC1F30011DB6BC3F3CC0301FB86
:1048200003F31CF47C3F00F0DB8002F0030207EE90
:10483000903AF8EE677A012A4BD0022A00F096806F
:10484000002A40F0B080694B1B6813F0200F23D082
:1048500066490A68C2F3C102654BD34007EE103ABD
:10486000F8EE476A07EE10EAB8EE476A86EE867AF7
:104870008B6BC3F3080306EE903AF8EE666A9FED81
:104880005D6A67EE867A76EEA77AF7EE006A77EED3
:10489000A67A27EE277A38E007EE10EAF8EE476AA4
:1048A0009FED556A86EE267A504B9B6BC3F3080347
:1048B00006EE903AF8EE666A9FED4E6A67EE867AEB
:1048C00076EEA77AF7EE006A77EEA67A27EE277AD9
:1048D0001BE007EE10EAF8EE476A9FED486A86EEA5
:1048E000267A424B9B6BC3F3080306EE903AF8EE30
:1048F000666A9FED406A67EE867A76EEA77AF7EEF3
:10490000006A77EEA67A27EE277A384A936BC3F3CC
:10491000462307EE903AF8EE677AF7EE006A77EEF4
:10492000A67A87EE276ABCEEC66A80ED006A936BB2
:10493000C3F3064307EE903AF8EE677A77EEA67A6D
:1049400087EE276ABCEEC66A80ED016A936BC3F3FB
:10495000066307EE903AF8EE677A77EEA67AC7EE2E
:10496000276AFCEEE66AC0ED026A00BD07EE10EAB7
:10497000F8EE476A9FED226A86EE267A1B4B9B6B08
:10498000C3F3080306EE903AF8EE666A9FED196AE3
:1049900067EE867A76EEA77AF7EE006A77EEA67A69
:1049A00027EE277AB1E707EE10EAF8EE476A9FEDA7
:1049B000136A86EE267A0D4B9B6BC3F3080306EE53
:1049C000903AF8EE666A9FED0B6A67EE867A76EEAD
:1049D000A77AF7EE006A77EEA67A27EE277A94E7B1
:1049E0000023036043608360BFE700BF00440258B8
:1049F0000090D003000000390024744C0024744A55
:104A0000001BB74B00B5794B9A6AD3F828C0CCF39A
:104A1000055ED96AC1F300215B6CC3F3CC0301FBD3
:104A200003F31CF07C7F00F0DB8002F0030207EE52
:104A3000903AF8EE677A012A4BD0022A00F096806D
:104A4000002A40F0B080694B1B6813F0200F23D080
:104A500066490A68C2F3C102654BD34007EE103ABB
:104A6000F8EE476A07EE10EAB8EE476A86EE867AF5
:104A70000B6CC3F3080306EE903AF8EE666A9FEDFE
:104A80005D6A67EE867A76EEA77AF7EE006A77EED1
:104A9000A67A27EE277A38E007EE10EAF8EE476AA2
:104AA0009FED556A86EE267A504B1B6CC3F30803C4
:104AB00006EE903AF8EE666A9FED4E6A67EE867AE9
:104AC00076EEA77AF7EE006A77EEA67A27EE277AD7
:104AD0001BE007EE10EAF8EE476A9FED486A86EEA3
:104AE000267A424B1B6CC3F3080306EE903AF8EEAD
:104AF000666A9FED406A67EE867A76EEA77AF7EEF1
:104B0000006A77EEA67A27EE277A384A136CC3F349
:104B1000462307EE903AF8EE677AF7EE006A77EEF2
:104B2000A67A87EE276ABCEEC66A80ED006A136C2F
:104B3000C3F3064307EE903AF8EE677A77EEA67A6B
:104B400087EE276ABCEEC66A80ED016A136CC3F378
:104B5000066307EE903AF8EE677A77EEA67AC7EE2C
:104B6000276AFCEEE66AC0ED026A00BD07EE10EAB5
:104B7000F8EE476A9FED226A86EE267A1B4B1B6C85
:104B8000C3F3080306EE903AF8EE666A9FED196AE1
:104B900067EE867A76EEA77AF7EE006A77EEA67A67
:104BA00027EE277AB1E707EE10EAF8EE476A9FEDA5
:104BB000136A86EE267A0D4B1B6CC3F3080306EED0
:104BC000903AF8EE666A9FED0B6A67EE867A76EEAB
:104BD000A77AF7EE006A77EEA67A27EE277A94E7AF
:104BE0000023036043608360BFE700BF00440258B6
:104BF0000090D003000000390024744C0024744A53
:104C0000001BB74B70B582B0864600236CE0DEF81F
:104C100008405D000320A84024EA0004C868A840BA
:104C20002043CEF80800DEF8044024EA0C0448686B
:104C3000C0F3001098402043CEF8040066E0DC0882
:104C400008345EF8240003F00705AD004FF00F0CA8
:104C50000CFA05FC20EA0C0C0869A84040EA0C009C
:104C60004EF8240068E0092000E0002000FA0CF073
:104C700028430234644D45F824004FF0B0400468E6
:104C8000D04324EA02054E6816F4801F01D042EAA0
:104C900004054FF0B0442560646800EA04054E68DE
:104CA00016F4001F01D042EA04054FF0B0446560DD
:104CB000D4F8844000EA04054E6816F4003F01D0A1
:104CC00042EA04054FF0B044C4F88450D4F8804060
:104CD00020404D6815F4803F01D042EA04004FF0B7
:104CE000B042C2F8800001330A6832FA03F000F0E3
:104CF00088804FF0010C0CFA03FC1CEA0202F2D08F
:104D0000486800F003000138012880D9486800F0A5
:104D1000030003280BD0DEF80C405D000320A84000
:104D200024EA00048868A8402043CEF80C004868B4
:104D300000F00300022882D0DEF800005C004FF093
:104D4000030C0CFA04FC20EA0C0C486800F0030089
:104D5000A04040EA0C00CEF80000486810F4403F44
:104D6000C1D02A48D0F8F44044F00204C0F8F4401E
:104D7000D0F8F40000F00200019001989C08A51CF6
:104D8000214850F8255003F0030C4FEA8C0C0F20FB
:104D900000FA0CF025EA00051D4886453FF465AF92
:104DA00000F5806086451ED000F5806086451CD0E9
:104DB00000F5806086451AD000F58060864518D0E1
:104DC00000F58060864516D000F58060864514D0D9
:104DD00000F58060864512D000F5006086453FF4FE
:104DE00042AF0A2042E7012040E702203EE70320CD
:104DF0003CE704203AE7052038E7062036E707209D
:104E000034E702B070BD00BF0004005800440258EF
:104E1000000002580AB1816170470904816170473E
:104E200030B58C4615461A46846D0368DFF8D0E12C
:104E300071498B4218BF734542D018318B423FD025
:104E400018318B423CD018318B4239D018318B420B
:104E500036D018318B4233D018318B4230D001F527
:104E600056718B422CD018318B4229D018318B428D
:104E700026D018318B4223D018318B4220D01831E4
:104E80008B421DD018318B421AD018318B4217D06B
:104E90005A498B4214D014318B4211D014318B42B9
:104EA0000ED014318B420BD014318B4208D0143108
:104EB0008B4205D014318B4202D014318B4207D182
:104EC000436E816E5960C36E13B1036F416F5960B9
:104ED00003684B49DFF820E1734518BF8B4268D067
:104EE0000EF1180E734564D00EF1180E734560D0A4
:104EF0000EF1180E73455CD00EF1180E734558D0A4
:104F00000EF1180E734554D00EF1180E734550D0A3
:104F10000EF5567E73454CD00EF1180E734548D0F1
:104F20000EF1180E734544D00EF1180E734540D0A3
:104F30000EF1180E73453CD00EF1180E734538D0A3
:104F40000EF1180E734534D00EF1180E734530D0A3
:104F5000DFF8B0E02949734518BF8B4217D0DFF85E
:104F6000A8E0734513D00EF1140E73450FD00EF167
:104F7000140E73450BD00EF1140E734507D00EF1CD
:104F8000140E734503D00EF1140E734527D1C36D73
:104F900003F01F0E012303FA0EF3636003685A60E7
:104FA0008368402B22D00368C3F808C00368DD6023
:104FB00015E0C36D03F01F0E3F2303FA0EF3A36049
:104FC0000468236823F48023236003685A6083689D
:104FD000402B05D00368C3F808C00368DD6030BD0E
:104FE00003689D600368C3F80CC0F8E703689D6020
:104FF0000368C3F80CC0F2E72800024008540258C6
:10500000100002401C5402583054025803682649CC
:10501000264A934218BF8B422ED0183293422BD08F
:105020001832934228D01832934225D01832934236
:1050300022D0183293421FD0183293421CD002F56E
:105040005672934218D01832934215D018329342B8
:1050500012D0183293420FD0183293420CD018322B
:10506000934209D01832934206D01832934203D0AB
:1050700023F0FF03836511E0D9B210390C4AA2FB7B
:1050800001C2C2F30212DFF82CC01CF80220C26574
:105090005F2905D96FF3090304338365806D704779
:1050A0006FF309038365F9E710000240280002400E
:1050B000ABAAAAAAF019010883699BB9836A012BDC
:1050C0000AD0022B02D00BB100207047C36A13F044
:1050D000807F2ED100207047C36AB3F1C07F2AD0F1
:1050E00000207047B3F5005F0AD0836A022B2CD9E9
:1050F000032B2CD1C36A13F0807F2AD10020704784
:10510000836A022B19D00AD8CBB1012B05D1C36A0F
:1051100013F0807F15D10020704700207047032BCB
:1051200005D1C36AB3F1C07F0DD0002070470020C5
:10513000704701207047012070470120704701200F
:105140007047012070470120704701207047002000
:10515000704701207047000003682149214A9342AB
:1051600018BF8B4227D01432934224D0143293427A
:1051700021D0143293421ED0143293421BD01432E9
:10518000934218D01432934215D0DAB2103A16492D
:10519000A1FB0212120915491944A8291ED9144B62
:1051A00013449B000366134B436602F01F02012366
:1051B000934083667047DBB2083B0F4AA2FB032390
:1051C0000E4A02EB1312920002660D4A4266C3F3C6
:1051D0000413012202FA03F3836670470832DEE704
:1051E000085402581C540258ABAAAAAAF0FBFDBFEF
:1051F0000082001080080240CDCCCCCC0096001676
:105200008058025801794A1E072A32D800B503682F
:10521000DFF870E0DFF870C0634518BF73451ED03B
:105220000CF1140C63451AD00CF1140C634516D024
:105230000CF1140C634512D00CF1140C63450ED024
:105240000CF1140C63450AD00CF1140C634506D024
:10525000084B0B449B00C366074B036705E0074BF5
:105260000B449B00C366064B0367012393404367CF
:1052700000BD70473F820010400902403F96001673
:1052800040590258085402581C54025870B504463C
:1052900001F0F8F9002C00F0B48105462368534969
:1052A000534A934218BF8B420CBF0121002150D0BA
:1052B000183293424DD0183293424AD0183293425A
:1052C00047D01832934244D01832934241D018321A
:1052D00093423ED002F5567293423AD0183293422E
:1052E00037D01832934234D01832934231D018322A
:1052F00093422ED0183293422BD01832934228D0AA
:105300001832934225D03B493B4A934218BF8B4207
:1053100000F02F81394A934200F02B8114329342DE
:1053200000F027811432934200F02381143293421B
:1053300000F01F811432934200F01B81143293421B
:1053400000F0178140236365032384F83530012082
:105350004AE0022284F83520002284F8342079BB08
:10536000274A93422CD01832934229D018329342C4
:1053700026D01832934223D01832934220D01832CC
:1053800093421DD002F55672934219D018329342BF
:1053900016D01832934213D01832934210D01832DC
:1053A00093420DD0183293420AD01832934207D05C
:1053B0001832934204D01A6822F001021A6003E006
:1053C0001A6822F001021A6023681A6812F0010FAD
:1053D00018D001F057F9431B052BF5D9202363653D
:1053E000032384F83530012070BD00BF1000024057
:1053F00028000240085402581C54025830540258E5
:10540000400002401A6880491140A268E0680243E7
:105410002069024360690243A0690243E0690243D4
:10542000206A02430A43616A042900F09780616898
:10543000A1F12905A1F13F00032888BF052D0AD954
:10544000A1F14700012806D9A1F14F00032802D994
:105450007439032901D842F480121A6023681E4669
:105460005D6925F00705636A1D43042B08D1A36A13
:105470001D43E36A23B12046FFF71EFE002872D1C8
:1054800075612046FFF7C2FDE36D03F01F023F2365
:105490009340836023685D495D4A934218BF8B4205
:1054A00042D0183293423FD0183293423CD0183247
:1054B000934239D01832934236D01832934233D0C7
:1054C0001832934230D002F5567293422CD01832E3
:1054D000934229D01832934226D01832934223D0D7
:1054E0001832934220D0183293421DD01832934282
:1054F0001AD01832934217D0464A934214D014322D
:10550000934211D0143293420ED0143293420BD0F6
:105510001432934208D01432934205D0143293428D
:1055200002D01432934213D12046FFF715FEA36830
:10553000802B59D0236E22791A60636EA26E5A6056
:105540006368013B072B52D90023E3662367636737
:1055500000206065012384F8353045E7E16A206B5F
:1055600001430A4363E740236365012084F8350063
:105570003AE7022284F83520002284F834201968A2
:105580006FF31011A268402A2CD0802A27D0002265
:10559000E06842EAD002206942EAD002606942EA49
:1055A000D002A06942EAD002E06942EAD002206A51
:1055B00042EA10120A431A602268174B1344174A32
:1055C000A2FB03231B099B00E3652046FFF71EFD9A
:1055D000E26D02F01F0101228A4042605AE74FF457
:1055E0008042D5E71022D3E700236360A2E720467C
:1055F000FFF708FEE36E00221A60236F626F5A60A5
:10560000A6E70120F0E600BF3F8010FE1000024038
:105610002800024008540258F8ABFDA7CDCCCCCCF2
:10562000002800F0508110B5044690F8340001289D
:1056300000F04B81012084F8340094F835000128F3
:1056400007D04FF400636365002384F834300120F1
:1056500010BD022084F83500002060652068DFF866
:1056600070E2DFF870C2604518BF70453ED00CF1A3
:10567000180C60453AD00CF1180C604536D00CF18E
:10568000180C604532D00CF1180C60452ED00CF18E
:10569000180C60452AD00CF1180C604526D00CF58A
:1056A000567C604522D00CF1180C60451ED00CF1E0
:1056B000180C60451AD00CF1180C604516D00CF18E
:1056C000180C604512D00CF1180C60450ED00CF18E
:1056D000180C60450AD00CF1180C604506D0D0F8C3
:1056E00000C02CF0010CC0F800C005E0D0F800C0EC
:1056F0002CF0010CC0F800C02046FFF791FB236896
:105700007349744A934218BF8B4238D0183293427F
:1057100035D01832934232D0183293422FD01832FB
:1057200093422CD01832934229D01832934226D07B
:1057300002F55672934222D0183293421FD018328B
:1057400093421CD01832934219D01832934216D08B
:105750001832934213D01832934210D01832934229
:105760000DD01A6822F00E0242F00A021A60236C71
:1057700093B12268136843F0040313600CE01A68C5
:1057800022F01E0242F016021A60236C23B1226836
:10579000136843F00803136023684D494D4A934250
:1057A00018BF8B4242D0183293423FD018329342F6
:1057B0003CD01832934239D01832934236D0183246
:1057C000934233D01832934230D002F5567293424E
:1057D0002CD01832934229D01832934226D0183256
:1057E000934223D01832934220D0183293421DD0D6
:1057F000183293421AD01832934217D0364A934245
:1058000014D01432934211D0143293420ED0143279
:1058100093420BD01432934208D01432934205D0F5
:105820001432934202D0143293420ED1236E1A687E
:1058300012F4803F03D01A6842F480721A60E36E5B
:105840001BB11A6842F480721A6023682049214A09
:10585000934218BF8B4230D0183293422DD0183269
:1058600093422AD01832934227D01832934224D040
:105870001832934221D0183293421ED002F556724C
:1058800093421AD01832934217D01832934214D050
:105890001832934211D0183293420ED018329342EC
:1058A0000BD01832934208D01832934205D01A68B0
:1058B00042F001021A600020CAE61A6842F00102B2
:1058C0001A600020C4E6012070470220C0E600BF35
:1058D00010000240280002400854025870B50446E7
:1058E00000F0D0FE002C00F08F81054694F8353092
:1058F000022B06D080236365002384F83430012016
:1059000070BD23688B498C4A934218BF8B4230D0BC
:10591000183293422DD0183293422AD01832934233
:1059200027D01832934224D01832934221D0183213
:1059300093421ED002F5567293421AD01832934207
:1059400017D01832934214D01832934211D0183223
:1059500093420ED0183293420BD01832934208D0A3
:105960001832934205D01A6822F00E021A60266897
:1059700009E01A6822F01E021A602268536923F0B7
:1059800080035361266823686A496B4A934218BFB3
:105990008B4242D0183293423FD0183293423CD0CF
:1059A0001832934239D01832934236D0183293428B
:1059B00033D01832934230D002F5567293422CD035
:1059C0001832934229D01832934226D0183293428B
:1059D00023D01832934220D0183293421DD018326F
:1059E00093421AD01832934217D0544A934214D09B
:1059F0001432934211D0143293420ED01432934297
:105A00000BD01432934208D01432934205D0143292
:105A1000934202D01432934204D1226E136823F4CD
:105A20008073136023684349434A934218BF8B42F3
:105A30002FD0183293422CD01832934229D01832EA
:105A4000934226D01832934223D01832934220D06A
:105A5000183293421DD002F55672934219D0183273
:105A6000934216D01832934213D01832934210D07A
:105A7000183293420DD0183293420AD01832934212
:105A800007D01832934204D01A6822F001021A603B
:105A900003E01A6822F001021A60336813F0010F64
:105AA0000ED000F0EFFD431B052BF6D920236365D4
:105AB000032384F83530002384F8343001201FE7B5
:105AC00023681C491C4A934218BF8B4238D01832B5
:105AD000934235D01832934232D0183293422FD0AD
