:020000040800F2
:10000000A0860224190400083102010809EE000844
:1000100029020108B1240008B17B0108000000009A
:100020000000000000000000000000007112010844
:10003000713100080000000051060108B9180108DC
:1000400037040008370400083704000837040008A4
:100050003704000837040008370400083704000894
:10006000370400083704000837040008A92B0008EB
:10007000B92B0008370400083704000837040008CB
:100080003704000837040008370400081136000858
:100090002136000837040008370400083704000838
:1000A0003704000837040008370400083704000844
:1000B000191B01083704000837040008370400083A
:1000C0003704000837040008370400083704000824
:1000D0003704000837040008A9410108B9410108A4
:1000E0003704000837040008000000003704000847
:1000F00037040008370400083704000837040008F4
:1001000037040008370400083704000837040008E3
:1001100037040008A9230108370400083704000841
:1001200037040008C92B0008D92B0008E92B000868
:10013000F92B0008370400083704000837040008CA
:1001400000000000000000000000000000000000AF
:100150003704000837040008370400083704000893
:100160003704000837040008370400083704000883
:1001700037040008A9020108370400080000000045
:100180003704000837040008B923010837040008C1
:100190003704000837040008370400083704000853
:1001A0003704000837040008370400080000000086
:1001B0003704000837040008370400083704000833
:1001C00037040008370400080000000000000000A9
:1001D00000000000000000003704000800000000DC
:1001E000000000000000000000000000000000000F
:1001F0000000000000000000370400083704000879
:100200003704000837040008000000003704000825
:1002100037040008370400083704000837040008D2
:100220003704000800000000370400080000000048
:1002300037040008370400080000000037040008F5
:1002400037040008370400083704000837040008A2
:100250003704000837040008370400083704000892
:100260003704000837040008370400083704000882
:1002700037040008370400083704000800000000B5
:100280003704000837040008370400083704000862
:1002900000000000370400083704000800000000D8
:1002A0000000000037040008370400083704000885
:1002B0009941010837040008370400083136000866
:1002C00037040008370400083704000800F002F87B
:1002D00000F092F80AA090E8000C82448344AAF14E
:1002E0000107DA4501D100F087F8AFF2090EBAE84C
:1002F0000F0013F0010F18BFFB1A43F0010318475A
:10030000B4D00100D4D00100103A24BF78C878C11D
:10031000FAD8520724BF30C830C144BF04680C600B
:10032000704700000023002400250026103A28BF53
:1003300078C1FBD8520728BF30C148BF0B60704757
:100340006E2900F0A583702900F0E98466291CF06D
:10035000168565291CF0138567291CF01085612915
:100360001CF00F8503681B0A28BF41F08001692932
:1003700000F05283642900F04F83752900F04C830C
:100380006F2900F07784782900F0B584E92900F01E
:100390001184E42900F00E84F52900F00B84EF2984
:1003A00000F07484F82900F0B4840368DB0928BFE6
:1003B00041F08001632901F04982732901F04E82E6
:1003C000E32901F05982F32901F05E820020704791
:1003D0001FB51CF0C7FC00F001FE04000020002146
:1003E0001CF064FC401C6060002000211CF074FCC8
:1003F000E0601FBD10B510BD01F07CFA1146FFF79B
:10040000E7FF18F0C1FA01F04DFB03B4FFF7F2FF6C
:1004100003BC01F051FB00000A4880470A488047AE
:100420000A480047FEE7FEE7FEE7FEE7FEE7FEE7D5
:10043000FEE7FEE7FEE7FEE705480649064A074BEA
:1004400070470000E9350008B1190108CD02000825
:10045000A07E0024A0860224A07E0224A07E022486
:1004600053EA020C00F069802DE9F04B4FF00006D2
:10047000002B1FBFB3FA83F503FA05F424FA05F63F
:100480005E4012BF1643B2FA82F502FA05F4C5F1D6
:1004900020051EBF22FA05FC44EA0C04203556EA6A
:1004A000044C4FEA144418BF641C4FF000084FF08E
:1004B0000009904271EB030C39D3002919BFB1FA3E
:1004C00081F701FA07F6B0FA80F700FA07F6C7F1EC
:1004D00020071EBF20FA07FC46EA0C062037B6FBB1
:1004E000F4FCA7EB0507103F07F01F0BCBF120062C
:1004F0002CFA06F60CFA0BFB44BFB3460026202F5D
:10050000A4BF5E464FF0000B5BEA060C08BF4FF03D
:10051000010B19EB0B0948EB0608ABFB027C06FB51
:1005200002CC0BFB03CCC01B71EB0C01C1E70B46EB
:10053000024641464846BDE8F08B13B5084318BF54
:100540004FF0FF300146AFF30080BDE81C4070471C
:100550000FB41CB50C0007AA009007D04142A1427D
:1005600002D32044401E01E04FF0FF30074B7B4494
:1005700069460190069800F0A4FA0021002C01D0F1
:10058000009A11701CBC5DF814FB00007705000098
:100590002DE9F05F93460F4680460446002600F0A2
:1005A000D5F9D0F80090824614F8015B2DB100F027
:1005B000C5F90068405DC007F6D12B2D02D02D2D66
:1005C0001AD0641E0021CAF800105A463946204647
:1005D00000F074FC014627B13868A04201D1C7F889
:1005E0000080DAF80000022809D0CAF800907005EF
:1005F00005D54842BDE8F09F46F48066E2E708462C
:10060000F8E7002800DA4042704740EA010370B57D
:100610009B072ED14FF00136042A2AD308C810C9EF
:100620009D1B9D43121F15EAC61517D0D8B2E1B223
:10063000401A50EA056110D198B2A1B2401A50EAAE
:1006400005410AD123F07F4024F07F41401A50EA4F
:10065000052102D1180EA0EB146070BDA342DBD0BF
:1006600018BA21BA884201D9012070BD4FF0FF307D
:1006700070BD0AB9002070BD10F8013B11F8014BA4
:1006800063B1A3420AD1521E08D010F8013B11F801
:10069000014B1BB1A34201D1521EEDD1181B70BDFD
:1006A000032A40F2308010F0030C00F0158011F89E
:1006B000013BBCF1020F624498BF11F801CB00F876
:1006C000013B38BF11F8013BA2F1040298BF00F8CA
:1006D00001CB38BF00F8013B11F0030300F0678045
:1006E000083AC0F0088051F8043B083A51F804CBAE
:1006F000A0E80810F5E7121D5CBF51F8043B40F874
:10070000043BAFF30080D20724BF11F8013B11F87E
:1007100001CB48BF11F8012B24BF00F8013B00F8C2
:1007200001CB48BF00F8012B7047431A28BF9A42FB
:100730007FF6B6AF10441144032A40F2268010F031
:10074000030F1EBF11F8013D521E00F8013D10F0CD
:10075000030F7FF4F6AF11F0030300F01184083AA1
:10076000C0F00B8051F8043D083A51F804CD40F830
:10077000043D40F804CDFFF7F3BF121D5CBF51F8F4
:10078000043D40F8043DAFF30080D20724BF11F8C8
:10079000013D11F801CD48BF11F8012C24BF00F82C
:1007A000013D00F801CD48BF00F8012C704710B59D
:1007B000203AC0F00B80B1E81850A0E81850B1E81A
:1007C0001850A0E81850203ABFF4F5AF5FEA027C59
:1007D00024BFB1E81850A0E8185044BF18C918C089
:1007E000BDE810405FEA827C24BF51F8043B40F82A
:1007F000043B08BF7047D20728BF31F8023B48BF0F
:1008000011F8012B28BF20F8023B48BF00F8012B4C
:10081000704702F0FF0343EA032242EA024200F07B
:1008200024B84FF000020429C0F0128010F0030C2D
:1008300000F01B80CCF1040CBCF1020F18BF00F8D3
:10084000012BA8BF20F8022BA1EB0C0100F00DB882
:100850005FEAC17C24BF00F8012B00F8012B48BFE0
:1008600000F8012B70474FF0000200B51346944684
:100870009646203922BFA0E80C50A0E80C50B1F1F8
:100880002001BFF4F7AF090728BFA0E80C5048BF0C
:100890000CC05DF804EB890028BF40F8042B08BFAA
:1008A000704748BF20F8022B11F0804F18BF00F8A6
:1008B000012B70470000000030B44FF0013C50F8AD
:1008C000042BCCFA52F451F8043BD51A20D1FCB9D0
:1008D00050F8042BCCFA52F451F8043BD51A17D136
:1008E000B4B950F8042BCCFA52F451F8043BD51AA1
:1008F0000ED16CB950F8042BCCFA52F451F8043BE9
:10090000D51A05D1002CDAD030BC4FF0000070476A
:1009100029BAB1FA81F111F01801D1F12000844017
:10092000F2D1CA40CB4012F0FF0213F0FF0330BCFB
:10093000D01A7047704770477047000010B500F03C
:100940004DFB001D10BD00BF65C30100004870478E
:100950000801002470B5044685690068C10601D508
:10096000302600E02026C00707D070BDD4E9012161
:1009700030469047206A401C20626D1EF6D570BD3F
:1009800070B5044685690078C00707D170BDD4E909
:10099000012120209047206A401C20626D1EF6D560
:1009A00070BD09684A0501D540B27047C905FCD53C
:1009B00000B2704709684A0501D5C0B27047C90541
:1009C000FCD580B2704770B50C460546012A05D0AB
:1009D0002878800600D5EA69002302E0012305E0BB
:1009E0005B1C934202D2E05C0028F9D1A869E618AA
:1009F000C01AA861286A184428622846FFF7AAFF8F
:100A000004E0D5E9012114F8010B9047B442F8D372
:100A10002846FFF7B5FF70BD2DE9F04106460024DA
:100A200010687529314616A510D0FFF7BAFF0028C7
:100A300002DA404213A507E031688A0701D512A502
:100A400002E0490704D511A5012401E0FFF7B2FF38
:100A500000210A2206F1240709E0B0FBF2FCB0FBFA
:100A6000F2F302FB1C00303078541846491C002871
:100A7000F3D123462A463046BDE8F04100F0F7BAEC
:100A8000000000002D0000002B00000020000000EE
:100A900011680268006A530501D508700AE0D305A1
:100AA00001D5088006E0130603D5C217C1E900028C
:100AB00000E008600120704701694A1C0261087863
:100AC000704700B58FB0CDE901310021059105498E
:100AD0007944CDE903101146684600F02BF90FB0B8
:100AE00000BD0000E5FFFFFFD1E900239A4202D2DA
:100AF000531C0B60107070472DE9FF5F15468A4646
:100B00000446DFF8AC80F8440027D8E900103E46E0
:100B1000CDE9001010E03AF816106A4602A800F07D
:100B2000C5FE411C07D02178890603D5E269391832
:100B300091420DD80744761C2078800602D5E069E2
:100B4000B84205DDAE42E6DB3AF816000028E2D1F5
:100B5000A069C01BA0612046FFF7FCFED8E9001089
:100B6000CDE90010002017E03AF818106A4602A8F4
:100B700000F09CFEB0F1FF3F81460BD000250DF147
:100B8000080B05E0D4E901211BF8050090476D1C16
:100B90004D45F7D308F10100B0428046E4DB206AFE
:100BA000384420622046FFF7EBFEBDE8FF9F0000BF
:100BB0007EC201002DE9F0418046D21D22F00702DD
:100BC0000025D2E90002F52915A614D0011E72F104
:100BD000000106DA0023D0EB030063EB020211A64A
:100BE00008E0D8F800108B0701D50FA602E04907EE
:100BF00001D50EA601251146002408F1240704E0C2
:100C000000F0F0F930323A55641C50EA0102F7D195
:100C10002B46324621464046BDE8F04100F027BA57
:100C2000000000002D0000002B000000200000004C
:100C300030B4002100F1240408E002F00705D208D6
:100C4000303542EA4372DB086554491C52EA030519
:100C5000F3D10468002310A2250708D504F020046E
:100C60000C4304D0C46901230CA2641EC46130BCCF
:100C700000F0FDB910B5044621461068FFF79AFE52
:100C800002462046BDE810400023D1E7D21D22F0E5
:100C90000701D1E90023CBE700000000300000008D
:100CA000F0B40D460188090502D5214C7C4402E0D0
:100CB0001F4C7C440E34002100F1240608E002F0B1
:100CC0000F071209E75D42EA03721B097754491CBA
:100CD00052EA0307F3D102780023120704D5702DDE
:100CE00006D009B1022311342246F0BC00F0BFB98E
:100CF00001231034F8E770B504460D46214610680C
:100D0000FFF758FE024629462046BDE87040002302
:100D1000C6E7D21D22F00703D3E90023C0E703682A
:100D2000126843F0200303600823C3610023B7E780
:100D3000E0C001002DE9F05F894604464FF0000A4B
:100D4000DFF874B1FB44C0F820A02046E168884772
:100D5000002874D0252806D0D4E901219047206AC4
:100D6000401C2062F1E700265F462046E168884784
:100D70002028054607DB312D05D2781910F8200C04
:100D800008B10643F1E7B00701D526F00406C4F820
:100D90001CA00027C4F818A02A2D09D028461BF053
:100DA0007DFF38B304EB8708303DC8F8185019E0D0
:100DB00059F8041B204604EB87029161E1688847DB
:100DC000012F054618D1E069002820DA26F0200618
:100DD0001DE0D8F8180000EB800005EB400030382B
:100DE000C8F818002046E168884705461BF056FF02
:100DF0000028EED1012F0AD02E2D08D12046E1681F
:100E000088477F1C0546022F46F02006C4DBA069F8
:100E1000002803DA404246F00106A061F00701D045
:100E200026F010066C2D0BD0682D09D04C2D39D032
:100E30006A2D35D0742D35D07A2D33D016E038E0B8
:100E4000E1682F4620468847B842054609D16C2FF5
:100E500026D04FF48060E168064320468847054667
:100E600004E06C2F1AD04FF4807006430DB3A5F147
:100E70004100192802D8203546F400664A46294622
:100E8000204626604E46FFF75BFA80B101280BD062
:100E9000F61D26F0070000F1080956E74020E4E7B8
:100EA0008020D8E70020D6E706F104094DE7284660
:100EB00052E7206ABDE8F09F70C001002DE9F05FA5
:100EC000824615468B4600270AF10104B946007890
:100ED000302801D09DB113E014F8010B01277828C8
:100EE00003D0582801D045B10AE00DB1102D07D12B
:100EF000002714F8010B102502E0082500E00A2560
:100F00000026B0460EE005FB080005FB06F10127B0
:100F10001FFA80F801EB1046B6F5803F00D3B946C2
:100F200014F8010B294600F0B3FC0028EBDABBF102
:100F3000000F05D00FB1641E00E05446CBF800400E
:100F4000B9F1000F06D0FFF701FD02210160C81EB4
:100F5000BDE8F09F48EA0640FAE7431A28BF9A42E4
:100F60007FF625AC1044114410F0030F1EBF11F89A
:100F7000013D521E00F8013D10F0030F7FF4F6AF63
:100F8000103AC0F00A8010B531E9185020E9185025
:100F9000103ABFF4F9AFBDE81040530724BF31E960
:100FA000081020E9081044BF51F8043D40F8043D02
:100FB00012F0030F08BF7047D20728BF31F8023D77
:100FC00048BF11F8012C28BF20F8023D48BF00F8A7
:100FD000012C704700487047080100240048704702
:100FE0002801002430B5B0F10A0271F100034FEA84
:100FF000900E4EEA817EB0EB0E0061EB91014FEA5C
:10100000101E4EEA017E10EB0E0041EB11114FEA6B
:10101000102E4EEA016E10EB0E0041EB11214FEA4B
:10102000104E4EEA014E10EB0E0041EB11414018FC
:1010300041F100014FEAD00040EA41704FEAD1018E
:101040004FEA810444EA907410EB800544EB0104FC
:101050006D1944EB0404521BA3414FF0000348BF39
:101060000A3200D530BD401C41F1000130BD2DE9F0
:10107000F0470D4699469246044600F1240801685F
:10108000880604D5E06921F01001216000E001200C
:10109000A84201DD471B00E00027A1697A1902EB95
:1010A0000900081AA0612078C00602D42046FFF784
:1010B00051FC002608E0D4E901211AF80600904707
:1010C000206A401C761C20624E45F4DB2078C00666
:1010D0000AD52046FFF73EFC06E0D4E90121302086
:1010E0009047206A401C2062381EA7F10107F4DCFB
:1010F00007E0D4E9012118F805009047206A401C58
:101100002062281EA5F10105F3DC2046FFF738FC1C
:101110002078000602D50220BDE8F0870120FBE719
:101120002DE9FF4F0C461E464FF0FF378BB0D2E93A
:101130000001DDF860800A908A46C1F30A5505B9BE
:101140003D46002108464FF00000BAF1000F00F4C0
:10115000400005DA00EB80004FF4400101EA500046
:101160004FEA9059B9F1010F00DDB9460A9850EAEB
:101170004A000ED044F61050A5F2FF3545432F1417
:10118000B8F1000F1ED07542291E1EDDC9F1000204
:101190001CE0B8F1010F4FF0000001D0302103E056
:1011A000F24305E02154401CB042FBDB30460022F4
:1011B000002121540B99C1F80880C1E900200FB02B
:1011C000BDE8F08FBD1B6D1CDEE74A4600DA6942C0
:1011D00006A800F0F5FB06AB93E8070003AB83E835
:1011E000070050460A991BF078F98DE80700A0F532
:1011F00000501F3800900398002D0ADD42F21F01B5
:101200004A460844002303A9039068461BF0E2FB0A
:1012100009E0A0F500504A461F38002303A90390B7
:1012200068461BF0ECFB8DE807000004000C03D0BF
:101230004FF0FF30410800E01046B8F1000F03D036
:101240000022009215461EE0751E05D4FFF7CAFE67
:10125000303262556D1EF9D5B3460122084302D0E3
:1012600000227F1C04E02078302801D100227F1E5C
:10127000002A099784D01DE0112D07DAFFF7B2FE8E
:10128000303262556D1C50EA0102F5D1084302D09C
:101290000098C8B10EE00021681E05E0235C625C86
:1012A00063542254401E491C8142F7DBAB46A81B05
:1012B000401E0990002004F80B000B98099AC0F812
:1012C0000880C0E9002B7AE711264FF0000857E7A5
:1012D0002DE9F04F88460446D21D22F0070191B057
:1012E000D1E90001CDE90A011BF0C0FC02460B98D0
:1012F000C00F01D02D2007E02068810701D52B20E9
:1013000002E0202101EAC000032A099001D0072A47
:1013100005DB03464146204600F012FB0BE1207836
:10132000800601D5E06900E00620B8F1650F81462E
:1013300006D0B8F1660F18D0B8F1670F70D131E060
:101340000020B9F1110F009001DB112301E009F138
:1013500001030AAA01A90CA8FFF7E2FEDDE90C705F
:10136000002609F10105834647E001204B46009025
:101370004FF000470AAA01A90CA8FFF7D1FEDDE94A
:101380000DB00C995D46002610B909F101000D1849
:10139000B9EB050003D4C0F1FF3609F10105A5EB57
:1013A00009002BE0B9F1010F01DA4FF0010900202B
:1013B000B9F1110F0090484601DD112300E003460A
:1013C0000AAA01A90CA8FFF7ABFEDDE90C704D4697
:1013D00000268346207800070AD4AB4500DA5D4634
:1013E00001A8012D04DD411911F8011C302907D095
:1013F0004F4502DA17F1040F04DA012082460FE0AC
:101400006D1EEEE7002F02DCED1B3E4403E0781C6E
:10141000A84200DD7D1CB81B00F1010A4FF0004717
:101420002078000703D4AA4501DB4FF0FF3A0021E2
:10143000B7F1004F0DF143088DF8431024D002207E
:101440002B23002F01DA7F422D230A21021EA0F157
:10145000010000DC5FB197FBF1FC97FBF1F201FBAF
:101460001C7C17460CF1300C08F801CDEEE7A8F112
:10147000010003702188090501D5452100E065219F
:10148000A0F1010800F8011C09980FA9A1EB0807B9
:10149000FF1D00B10120411901EBEA70A169384438
:1014A000081A401EA0612078C00602D42046FFF72B
:1014B00051FA099828B1D4E901219047206A401CCB
:1014C00020622078C00622D52046FFF743FA1EE0AE
:1014D000002E04DBB34502DD01A8805D00E0302072
:1014E000D4E901219047206A401C2062761CAAF1B1
:1014F00001005FEA000A0AD1FFF770FDC0680168C9
:10150000405CD4E901219047206A401C2062281EDB
:10151000A5F10105DCDC07E0D4E9012118F8010B95
:101520009047206A401C2062381EA7F10107F3DCB7
:101530002046FFF725FA032011B041E62DE9F04FD0
:1015400004460D46D21D22F0070089B0D0E900976D
:10155000484639461BF08AFB0246F80F01D02D237E
:1015600007E02068810701D52B2302E0202101EA52
:10157000C0038DF820300BB1012000E00020032AC9
:10158000824601D0072A04DB2946204600F0D8F91C
:101590003FE12078800601D40D2500E0E569C7F31E
:1015A0000A560D2D49DA00214FEA175B08464FF025
:1015B0000000002F00F4400007DA00EB80004FF439
:1015C000400100EBD07001EA60008115012901DDC6
:1015D0004FF0FF3100224FEA850CBCF1180F06D303
:1015E0001346ACF118004FF08052C24003E04FF4B4
:1015F000801323FA0CF30CF10C0CBCF1200F04D374
:10160000ACF1200C09FA0CF001E007FA0CF000290B
:101610004FF0004801DD18B90FE00ED140450CD362
:1016200019EB02095F4121B9404502D19F4329EAE4
:101630000209BBEB175F00D0761C2088000502D59D
:101640007B48784402E07A487844193808AA302365
:1016500002F80A30037C0AF10101002E0AF1020AA5
:1016600053546A4602DC4FF0300101E04FF0310183
:101670004FF001088DF8001002D0A6F2FF3603E00B
:1016800059EA470100D06B4E002D02DC2178090792
:1016900004D54FF002082E218DF80110C446002118
:1016A0000BE0C7F303433F01C35C491C6D1E02F806
:1016B0000830052908F1010801DA002DF1DC0021CC
:1016C0000CE000EB1973491C1B786D1E082902F809
:1016D00008304FEA091908F1010801DA002DF0DCA1
:1016E00021688B0602D516E0A8F10108E04505DD6A
:1016F00002EB080313F8013C302BF5D0B8F1000FD2
:1017000009DD02EB080313F8013C2E2B03D1090776
:1017100001D4A8F10108002D05DD3E2102F80810D2
:101720006D1E08F10108407C002E02F8080008F147
:10173000010804DA2D20764202F8080002E02B208E
:1017400002F808000A214FF47A70864208F1010875
:101750000BDB96FBF0F3303302F8083096FBF0F326
:1017600008F1010800FB136601E0642E0CDB642025
:1017700096FBF0F3303302F8083096FBF0F308F1F3
:10178000010800FB136601E00A2E06DB96FBF1F070
:10179000303002F8080008F1010896FBF1F001FB77
:1017A0001060303002F80800A16908F1010808EB68
:1017B000050202EB0A00081AA0612078C00602D4D4
:1017C0002046FFF7C7F8216A08AE01EB0A00206245
:1017D00004E0D4E9012116F8010B9047BAF1010A9F
:1017E000F7D22078C00602D52046FFF7B3F86E4640
:1017F00009E016F8010B3E280FD0D4E901219047EB
:10180000206A401C2062B8F10108F2D22046FFF79E
:10181000B7F809B00320BDE8F08F206A28442062A1
:1018200003E0D4E90121302090476D1EEBD3F8E7A7
:1018300096B7010002FCFFFF10B5436913B1AFF387
:10184000008001E0FFF7BFF8012010BD127800F121
:1018500024010A7000224A700122EDE711684FF05E
:10186000FF32E9E710B5436913B1AFF3008001E03F
:10187000FFF742F9012010BD128800F12401828493
:101880000022C2840122EDE711684FF0FF32E9E740
:101890003A2800D2303820F02002412A01D3A2F1A8
:1018A0003700884201D34FF0FF3070472DE9F041F7
:1018B00016460C460546FFF741F8036893F8010108
:1018C000012807D0FF2C12D8185D80B101202C70A0
:1018D000BDE8F081D3F807013246214603F2071331
:1018E000C7182846BC46BDE8F041002360474FF0CA
:1018F000FF30EDE77546FFF76DFBAE460500694624
:10190000534620F00700854618B020B5FEF794FD39
:10191000BDE820404FF000064FF000074FF00008F0
:101920004FF0000BAC46ACE8C009ACE8C009ACE82D
:10193000C009ACE8C00921F007018D4670470000DE
:101940002DE9F0411F46044603260168072A01F4E9
:10195000006004DB08B116A505E016A503E008B198
:1019600015A500E015A521F010002060A069C01E9B
:10197000A0610FB1401EA0612046FEF7EBFF4FB102
:10198000D4E9012138469047206A401C2062C01CDF
:10199000206206E0206AFAE7D4E9012115F8010B7C
:1019A0009047761EF8D22046FEF7EAFFBDE8F081A8
:1019B0004E414E006E616E00494E4600696E6600F3
:1019C0002DE9F047814616468AB0354878440DC85F
:1019D0008DE80D0032487844801C03AC0DC884E8C3
:1019E0000D0041F69B300844372190FBF1F290FB4B
:1019F000F1F5A5F1800501FB12041B3C02D5644200
:101A0000012000E00020DFF898A080460027FA447B
:101A1000AAF1BE0A0EE0E0070AD03246684607EB9C
:101A2000470101230AEB81011AF0E9FF8DE8070065
:101A300064107F1C002CEED1194F7F44AE3F19E09B
:101A4000E80715D007EB04100DF1180A90E80E0016
:101A50008AE80E00C068F04201D198190890324619
:101A6000012306A903A81AF0CAFF03AB83E8070005
:101A70006D10641C002DE3D14FF00103324669461E
:101A8000B8F1000F03A802D01AF0A4FF01E01AF089
:101A9000B6FFC9E90001C9F808200AB0BDE8F0871F
:101AA0009CB4010010B50446AFF300802046BDE8A9
:101AB0001040FEF7AABC000001491820ABBEFEE7AB
:101AC000260002007047000080B584B003900291A8
:101AD0000020ADF80600039820B1FFE70298022825
:101AE00001D8FFE71AE003980299023940F2040294
:101AF000C2F20042128802F07FF9ADF80600BDF88C
:101B00000600039A0299114401F8020C9DF807009F
:101B1000039A0299114401F8010CFFE704B080BD5B
:101B200080B584B00390029100208DF807000398DF
:101B300020B1FFE70298022801D8FFE70FE00398E1
:101B400002990139FF2202F08BF98DF807009DF808
:101B50000700039A0299114401F8010CFFE704B051
:101B600080BD00000000000083B0EFF31080019002
:101B700001980090EFF3108072B60290009803B0C5
:101B8000704700000000000083B0EFF31080019068
:101B900001980090EFF3108072B60290009803B0A5
:101BA000704700000000000083B0EFF31080019048
:101BB00001980090EFF3108072B60290009803B085
:101BC000704700000000000083B0EFF31080019028
:101BD00001980090EFF3108072B60290009803B065
:101BE000704700000000000083B0EFF31080019008
:101BF00001980090EFF3108072B60290009803B045
:101C0000704700000000000083B0EFF310800190E7
:101C100001980090EFF3108072B60290009803B024
:101C2000704700000000000083B0EFF310800190C7
:101C300001980090EFF3108072B60290009803B004
:101C4000704700000000000083B0EFF310800190A7
:101C500001980090EFF3108072B60290009803B0E4
:101C6000704700000000000083B0EFF31080019087
:101C700001980090EFF3108072B60290009803B0C4
:101C8000704700000000000083B0EFF31080019067
:101C900001980090EFF3108072B60290009803B0A4
:101CA000704700000000000083B0EFF31080019047
:101CB00001980090EFF3108072B60290009803B084
:101CC000704700000000000083B0EFF31080019027
:101CD00001980090EFF3108072B60290009803B064
:101CE000704700000000000083B0EFF31080019007
:101CF00001980090EFF3108072B60290009803B044
:101D0000704700000000000080B584B00290ADF87C
:101D10000610029848B1FFE7BDF8060028B1FFE7BA
:101D2000BDF80600812804D3FFE701208DF80F00DD
:101D30000CE00299BDF8062042F24C60C2F200406D
:101D400014230CF0C1FF8DF80F00FFE79DF80F0082
:101D500004B080BD0000000080B582B042F6C470BF
:101D6000C2F20040009040F22461FEF77CFD009A30
:101D700042F60800C2F20040106042F24C61C2F22A
:101D80000041C2F80C1242F69C01C2F20041C2F8B6
:101D90001814006845F20001C4F20001884218D10D
:101DA000FFE742F24C60C2F20040006841F6004199
:101DB000C4F2010188420CD1FFE742F69C00C2F256
:101DC0000040006847F60001C4F20001884204D0D8
:101DD000FFE701208DF8070033E042F6C470C2F23D
:101DE0000040011D42F60800C2F2004001220CF042
:101DF000BFFEF0B9FFE742F6C470C2F2004000F542
:101E0000047142F24C60C2F2004001220CF0B0FEBC
:101E100078B9FFE742F6C470C2F2004000F21C41FC
:101E200042F69C00C2F2004001220CF0A1FE20B15B
:101E3000FFE701208DF8070003E000208DF8070080
:101E4000FFE79DF8070002B080BD00000000000021
:101E500080B58AB008900791ADF81A20089816F05E
:101E600027FD05900598002803D4FFE7079820B9BF
:101E7000FFE74FF0FF3009905BE0059842F6C4722F
:101E8000C2F200424FF4037100FB01200490FFF7FF
:101E9000DBFE0390049890F80A0288B1FFE70498EB
:101EA000B0F806020499A1F808020499002081F80C
:101EB0000A02039800F0DCF84FF0FF30099038E098
:101EC0000020ADF80A00FFE7BDF80A10BDF81A209F
:101ED0000020914201900BDAFFE70498B0F8080265
:101EE0000499B1F80612401A18BF01200190FFE7CB
:101EF0000198C007B0B1FFE70498B0F80812084491
:101F000040790799BDF80A20531CADF80A3088546F
:101F10000498B0F8080201306FF35F200499A1F82B
:101F20000802D1E7039800F0A3F8BDF80A00099071
:101F3000FFE709980AB080BD80B584B00020039007
:101F4000FFE7039802283DDCFFE7039842F6C472DE
:101F5000C2F200424FF4037100FB0120029002988C
:101F6000006828B1FFE7029890F80B0208B9FFE774
:101F700024E0FFF769FE0190029800680BF02CFE48
:101F8000029951F8040B01220CF0F2FD28B9FFE789
:101F90000299002081F80B020CE0039800EB40014D
:101FA00041F25C60C2F2004000EB810188680130C0
:101FB0008860FFE7019800F05BF8FFE703980130C5
:101FC0000390BEE704B080BD82B0009000980190FD
:101FD000019880F3108802B07047000000000000F4
:101FE00082B0009000980190019880F3108802B0B0
:101FF000704700000000000082B00090009801903F
:10200000019880F3108802B07047000000000000C3
:1020100082B0009000980190019880F3108802B07F
:10202000704700000000000082B00090009801900E
:10203000019880F3108802B0704700000000000093
:1020400082B0009000980190019880F3108802B04F
:10205000704700000000000082B0009000980190DE
:10206000019880F3108802B0704700000000000063
:1020700082B0009000980190019880F3108802B01F
:10208000704700000000000082B0009000980190AE
:10209000019880F3108802B0704700000000000033
:1020A00082B0009000980190019880F3108802B0EF
:1020B000704700000000000082B00090009801907E
:1020C000019880F3108802B0704700000000000003
:1020D00082B0009000980190019880F3108802B0BF
:1020E000704700000000000082B00090009801904E
:1020F000019880F3108802B07047000000000000D3
:1021000080B584B0FFF780FD039043F22A60C2F2ED
:10211000004001780020019071B1FFE706F068FBF4
:1021200042F63811C2F200410968411A00206529BF
:1021300038BF01200190FFE7019800F001008DF801
:102140000B000398FFF77CFF9DF80B0004B080BDE7
:1021500080B586B0ADF816000491BDF81600019068
:1021600004990868496803910290BDF81600014679
:10217000009140F20F11884212D0FFE7009840F220
:102180001F1188420CD0FFE7009840F23F118842AF
:102190000CD0FFE7009840F24F1188420CD011E0BC
:1021A00001980299039A00F00FF90CE00198029946
:1021B000039A00F0C5F806E001980299039A00F02E
:1021C0004BF900E00DE043F22A61C2F20041012028
:1021D000087006F00DFB42F63811C2F200410860AB
:1021E000FFE706B080BD000080B5B4B008A80EF0CF
:1021F00017FFFFF709FD079040F27011C2F200418E
:102200001EA85822FEF7D3FA0798FFF719FF9DF88A
:102210007100D8B9FFE700200490ADF88000ADF858
:102220007C00ADF87A00ADF878008DF885008DF867
:1022300084008DF895008DF8B8008DF893008DF826
:1022400096008DF894002F902890FFE700200190D1
:102250000690059005A80290011D0091BDF9781027
:1022600018F04EFE02980230BDF97A1018F048FEC0
:102270000098BDF97C1018F043FE02980630BDF9B5
:10228000801018F03DFE029A41F63870C2F200400C
:10229000039040F20F1100F08BF90199029806911A
:1022A0000591BDF9821018F02BFE0398029A9DF853
:1022B00093108DF816109DF884E09DF894C09DF859
:1022C00095109DF8963001F001010EF0010E41EAE3
:1022D0004E010CF0010C41EA8C0103F0010341EACC
:1022E000C3018DF817109DF892108DF818109DF805
:1022F000851001F001018DF819109DF8B81001F05A
:1023000001018DF81A1040F21F1100F051F9029AE4
:1023100003983299339B0693059140F25F1100F0C8
:1023200047F9029A0398289905912F99069140F24E
:102330002F1100F03DF934B080BD00000000000016
:1023400080B586B005920491039003A804300290F2
:10235000029817F0FDFE00EE100AB8EEC00A9FEDDD
:10236000191A8DED001A80EE010A40F27010C2F2C7
:102370000040019080ED0C0A0298023017F0E8FE50
:102380009DED001A0146019800EE101AB8EEC00A41
:1023900080EE010A80ED0D0A0298043017F0D8FE95
:1023A0009DED001A019900EE100AB8EEC00A80EE09
:1023B000010A81ED0B0A0298807981F8380006B095
:1023C00080BD00BF00007A4480B586B005920491BC
:1023D000039003A804300290029817F0B9FE40F26F
:1023E0007011C2F20041019108820298023017F088
:1023F000AFFE019948840298043017F0A9FE0199B4
:1024000000EE100AB8EEC00A9FED111A80EE010A24
:1024100081ED050A0298807900F00100C8770398E1
:1024200040F20F11884204D1FFE70298C079009072
:1024300003E0029880790090FFE70098C0F3400025
:1024400040F27011C2F20041888406B080BD00BF26
:1024500000007A440000000080B586B00592049127
:1024600003900498059901910090012050B9FFE76D
:102470009DED000BB7EEC00B10EE100A15F0C4FD79
:1024800040B910E09DED000B51EC100B15F05CFD18
:1024900048B1FFE79DED000B40F27010C2F2004022
:1024A00080ED120BFFE706B080BD000000000000C9
:1024B000FFE7FEE70000000080B586B005900598B4
:1024C00015F04EFEB0F1FF3F01DCFFE723E0059978
:1024D000C86D096E08440490049808B9FFE71AE033
:1024E000FFF7A2FB0390059802900498202804D3DC
:1024F000FFE74FF0FF30019005E00499012088408C
:1025000001380190FFE70298019904F00DFD03984E
:10251000FFF7A2FDFFE706B080BD0000000000004D
:1025200080B58CB00A900020019009900890079027
:10253000069005900490039002900A9815F010FE02
:10254000B0F1FF3F04DCFFE701208DF82F0029E008
:102550000020029003900221049101210591069030
:1025600007900A9802A904F0F3FD88B9FFE70A98DA
:10257000694601230B600222114604F075FE38B94A
:10258000FFE70A980121002204F0F2FC20B1FFE7E6
:1025900001208DF82F0005E00A9805F0D1FE8DF896
:1025A0002F00FFE79DF82F000CB080BD0000000059
:1025B00080B590B00E90ADF836100C9203A824218F
:1025C000FEF751F90E9815F0CBFD01900198002807
:1025D0000AD4FFE7BDF836100020B0EBD12F03D1AD
:1025E000FFE70C9820B9FFE701208DF83F0040E09D
:1025F000BDF8360003900020049005900821069154
:102600000790089009900A90FFF70EFB00900E9833
:1026100004F0FEFF70B9FFE7019A41F23861C2F29F
:10262000004151F82200013041F8220002208DF8CB
:102630000B0016E00E980C9A03A904F019FD8DF812
:102640000B009DF80B0058B1FFE7019941F238608B
:10265000C2F2004000EB8101C8680130C860FFE7AA
:10266000FFE70098FFF7F8FC9DF80B008DF83F009E
:10267000FFE79DF83F0010B080BD000000000000A3
:1026800084B08DF80F000291ADF806209DF80F0080
:102690000146009123281DD80099DFE801F01213AC
:1026A0001415161B1B1B1B1B1B1B1B1B1B1B1B1B8C
:1026B0001B1B1B1B1B1B1B1B1B1B1B1B1B1B171871
:1026C000191A08E007E006E005E004E003E002E094
:1026D00001E000E0FFE7002004B0704700000000C8
:1026E000002070470000000080B582B041F6240051
:1026F000C2F20040009040F6F451C2F200410022C4
:10270000019212F009F9009840F2F451C2F200412E
:1027100012F0E2F8019802B080BD00000000000055
:1027200080B584B003900291039941F62400C2F26F
:102730000040019012F0D0F8019812F071F80020DA
:1027400004B080BD0000000083B0029001918DF8BC
:10275000032000208DF802009DF9020003B07047AD
:1027600081B0009000990020C861009988610099AB
:1027700048610099C862009988620099486200998E
:102780000862009948630099086301B0704700002F
:1027900080B582B00190FFF7F7F90090019941F2FE
:1027A0008063C2F2004318685A689B688B604A6075
:1027B00008600098FFF714FC02B080BD0000000024
:1027C00041F28061C2F200410020886048600860E8
:1027D00043F23C61C2F20041087042F63C11C2F281
:1027E000004108707047000080B58CB005A90291C7
:1027F000014602980B9180ED050A05A80CF004FC37
:1028000005F0F6FF0490059841F28061C2F20041A4
:1028100008600B9890F8510038B9FFE741F28061E9
:10282000C2F2004100204872FFE79DF82300B0B1DA
:10283000FFE79DF8200007280AD8FFE79DF8210050
:102840004F2805D8FFE79DF82200502807D3FFE75F
:1028500041F28061C2F2004101204872FFE741F27B
:102860008060C2F20040007A88B1FFE79DF8230043
:1028700030B1FFE704980999401A652807D3FFE7AC
:1028800041F28061C2F2004101204872FFE70B98DB
:1028900090F851100020019079B1FFE7002001214C
:1028A000019051B9FFE741F28060C2F20040407AE6
:1028B000B0FA80F040090190FFE7019800F00100B4
:1028C0008DF80F009DF80F00002853D1FFE741F26B
:1028D0008061C2F20041087A8DF80E000020087273
:1028E0009DF80E0040B9FFE742F63C10C2F20040EE
:1028F0000078FD2807D0FFE741F69860C2F200405B
:10290000FFF7DAFDFFE79DF80E00C8B9FFE742F6D2
:102910003C10C2F200400078FD2811D1FFE743F2DD
:102920003C60C2F20040007850B1FFE7049842F6E4
:102930004011C2F200410968401A642819D3FFE728
:10294000FD200CF0F1FC98B9FFE743F23C61C2F2C4
:10295000004101200870049842F64011C2F2004183
:10296000086042F63C11C2F20041FD200870FFE70A
:10297000FFE70DE19DF823100020009049B1FFE72B
:1029800004980999411A0020652938BF0120009058
:10299000FFE7009800F001008DF80D009DF80D0094
:1029A00028B1FFE79DF82000012847D0FFE741F25A
:1029B0008061C2F200410020087243F23C60C2F222
:1029C0000040007890B1FFE742F63C10C2F20040B0
:1029D0000078FC280AD1FFE7049842F64011C2F2C1
:1029E00000410968401A642827D3FFE79FED6C2A4D
:1029F000B0EE420AF0EE420AB0EE421AF0EE421A8F
:102A00000CF062FCC0B9FFE7FC200CF08DFC98B91B
:102A1000FFE743F23C61C2F20041012008700498D4
:102A200042F64011C2F20041086042F63C11C2F287
:102A30000041FC200870FFE7FFE7A9E041F2806059
:102A4000C2F20040007A48BBFFE7029890ED000A0E
:102A50009FED501AB4EE410AF1EE10FA0BDBFFE7DE
:102A6000029890ED000A9FED4C1AB4EE410AF1EE87
:102A700010FA0ADDFFE741F28061C2F20041012055
:102A80004872FD200CF050FC82E0059841F2806114
:102A9000C2F20041486001200872FFE7002028B917
:102AA000FFE70A9815F08CFA58B91EE0029890EDED
:102AB000050AB7EEC00A51EC100B15F015FAA0B1DB
:102AC000FFE7029890ED050AB5EE400AF1EE10FA24
:102AD0000BDDFFE7029890ED050A9FED301AB4EE8A
:102AE000410AF1EE10FA06DDFFE741F26F20C3F66E
:102AF00003300A90FFE702980B9991ED121A90EDBE
:102B0000052A41F28060C2F2004090ED010AA1EE78
:102B1000020A80ED010A90ED010A9FED1E1AB4EE43
:102B2000410AF1EE10FA0ADAFFE741F28061C2F2DF
:102B3000004143F23330CBF6B3604860FFE741F227
:102B40008060C2F2004090ED010A9FED131AB4EECE
:102B5000410AF1EE10FA0ADDFFE741F28061C2F2AC
:102B6000004143F23330C3F6B3604860FFE741F2FF
:102B70008060C2F2004090ED010AB3EE041AF7EE55
:102B8000001A9FED072AF0EE420A0CF09DFBFFE7CA
:102B90000CB080BD3333B3BE3333B33E0AD7A33C4E
:102BA000000000000000000080B541F67C50C2F239
:102BB000004002F005FC80BD80B541F62430C2F231
:102BC000004002F0FDFB80BD80B541F61440C2F22A
:102BD000004002F0F5FB80BD80B541F69C30C2F2AA
:102BE000004002F0EDFB80BD80B541F68C40C2F2A2
:102BF000004002F0E5FB80BD80B541F60450C2F212
:102C0000004002F0DDFB80BD83B0029002980168B5
:102C100001201022C4F202029142009000F0A38031
:102C2000FFE70298016801202822C4F202029142C3
:102C3000009000F09880FFE7029801680120402290
:102C4000C4F202029142009000F08D80FFE70298EA
:102C5000016801205822C4F202029142009000F063
:102C60008280FFE70298016801207022C4F202020C
:102C70009142009077D0FFE70298016801208822F6
:102C8000C4F20202914200906DD0FFE70298016801
:102C90000120A022C4F202029142009063D0FFE71B
:102CA000029801680120B822C4F202029142009009
:102CB00059D0FFE702980168012040F21042C4F2A7
:102CC0000202914200904ED0FFE702980168012075
:102CD00040F22842C4F202029142009043D0FFE742
:102CE00002980168012040F24042C4F2020291427F
:102CF000009038D0FFE702980168012040F2584266
:102D0000C4F20202914200902DD0FFE702980168C0
:102D1000012040F27042C4F202029142009022D09F
:102D2000FFE702980168012040F28842C4F20202E3
:102D30009142009017D0FFE702980168012040F20D
:102D4000A042C4F20202914200900CD0FFE7029828
:102D500000684FF64831CBF6FD710844B0FA80F0B8
:102D600040090090FFE70098C00740B3FFE70298D2
:102D7000007810384AF6AB21CAF6AA21A0FB011050
:102D800000090190019800F007014DF21400C0F60F
:102D90000100405C0299C8650198042807D3FFE749
:102DA00002990868042262F30900886506E0029926
:102DB000086840F2FF3290438865FFE705E002991A
:102DC000086820F0FF008865FFE70298806D03B077
:102DD000704700000000000084B003900398006872
:102DE000019003980168012045F20842C5F60202ED
:102DF000914200904ED0FFE703980168012045F210
:102E00001C42C5F602029142009043D0FFE70398AE
:102E10000168012045F23042C5F60202914200905D
:102E200038D0FFE703980168012045F24442C5F617
:102E30000202914200902DD0FFE703980168012023
:102E400045F25842C5F602029142009022D0FFE7B7
:102E500003980168012045F26C42C5F602029142D6
:102E6000009017D0FFE703980168012045F28042E7
:102E7000C5F60202914200900CD0FFE7039800686B
:102E80004AF66C31CAF2FD710844B0FA80F040098C
:102E90000090FFE70098C00710B3FFE703980078A1
:102EA00008384CF6CD41CCF6CC41A0FB011000090E
:102EB0000290029945F60000C5F6020000EB810081
:102EC00003990866039945F68000C5F60200486636
:102ED000029800F01F01012088400399886635E0C0
:102EE0000398007810384AF6AB21CAF6AA21A0FB55
:102EF000011000090290019840F2B841C4F20201A9
:102F000088420CD8FFE7019840F21041C4F2020158
:102F1000884204D3FFE7029808300290FFE7029945
:102F200040F60000C4F2020000EB8100039908663D
:102F3000039940F68000C4F202004866029800F04F
:102F40001F010120884003998866FFE704B070479D
:102F500083B002900298007901900198002800F057
:102F60008A80FFE70198082800F28580FFE7029831
:102F70000168012045F20842C5F602029142009024
:102F80004ED0FFE702980168012045F21C42C5F6C9
:102F900002029142009043D0FFE7029801680120AD
:102FA00045F23042C5F602029142009038D0FFE768
:102FB00002980168012045F24442C5F6020291429E
:102FC00000902DD0FFE702980168012045F2584299
:102FD000C5F602029142009022D0FFE702980168F4
:102FE000012045F26C42C5F602029142009017D0D2
:102FF000FFE702980168012045F28042C5F602020F
:10300000914200900CD0FFE7029800684AF66C31BC
:10301000CAF2FD710844B0FA80F040090090FFE761
:103020000098C00780B1FFE7019945F6FC00C5F69E
:10303000020000EB81000299C866029945F6401033
:10304000C5F6020008670FE0019940F6FC00C4F2E3
:10305000020000EB81000299C866029940F6401018
:10306000C4F202000867FFE70198411E0120884072
:1030700002994867FFE703B07047000000000000B6
:1030800085B0049000208DF80F000498806918BB6B
:10309000FFE70498806A029003281BD80299DFE8B2
:1030A00001F0020D0218049890F82F00C00720B11B
:1030B000FFE701208DF80F00FFE70CE00498C06ADD
:1030C000B0F1C07F04D1FFE701208DF80F00FFE7CA
:1030D00001E000E0FFE747E004988069B0F5005F99
:1030E00026D1FFE70498806A019003281ED8019931
:1030F000DFE801F00206021101208DF80F0016E052
:10310000049890F82F00C00720B1FFE701208DF848
:103110000F00FFE70BE00498C06AB0F1C07F04D154
:10312000FFE701208DF80F00FFE700E0FFE71AE05E
:103130000498806A0090032804D3FFE700980328CE
:1031400004D00EE001208DF80F000BE0049890F8F9
:103150002F00C00720B1FFE701208DF80F00FFE727
:1031600000E0FFE7FFE7FFE79DF80F0005B07047BD
:10317000704700000000000080B582B00190FEF7AB
:1031800013FD0090019943F28463C2F20043186872
:103190005A689B688B604A6008600098FEF72CFFB5
:1031A00002B080BD0000000080B582B0002038B9B8
:1031B000FFE70020C4F2102014F00EFF58B907E01A
:1031C0009FED1D0B51EC100B14F09EFE18B9FFE79C
:1031D00000F002FAFFE743F28461C2F200410020EE
:1031E000019088604860086043F24060C2F200408D
:1031F000B0EE080ADFED120A9FED121A40F6B83160
:103200004FF4FA720BF098FE019842F6F011C2F2F8
:1032100000414860086043F2A461C2F200410860C6
:1032200041F2E461C2F20041086043F28061C2F2FF
:103230000041087002B080BD000000000000424064
:103240000AD7A33C0000000080B5A8B006A90291EF
:10325000014602988DF89F1080ED200A1EA80CF000
:103260008FF808A80DF0DCFE43F28461C2F2004141
:1032700091ED000A0020B5EE400AF1EE10FA024688
:1032800018BF01228DF81F2001220A72097A0390CB
:1032900081B1FFE79DF890100020039051B1FFE746
:1032A00005F0A6FA2299411A0020652938BF0120AD
:1032B0000390FFE7039800F0010043F28461C2F23B
:1032C000004148729DF8710038B9FFE743F284610C
:1032D000C2F200410020887212E09DF81F0070B118
:1032E000FFE743F28460C2F20040407A38B9FFE75A
:1032F00043F28461C2F2004101208872FFE7FFE7D8
:103300009DF81F00C8B3FFE7BDF97A0000EE100A70
:10331000B8EEC00AB0EEC00A9FEDA91AB4EE410A99
:10332000F1EE10FA29DAFFE743F28060C2F20040C2
:10333000007870B9FFE743F28061C2F200410120DA
:10334000087005F055FA43F27C61C2F20041086052
:10335000FFE705F04DFA43F27C61C2F200410968D3
:10336000401AB0F5FA7F07D3FFE743F28461C2F257
:10337000004101208872FFE706E043F28061C2F25B
:10338000004100200870FFE743F28460C2F2004071
:10339000407A90B3FFE741F2E460C2F20040006877
:1033A0002399884229D1FFE72098219942F6F0120B
:1033B000C2F2004213685268C01A914119F0A5FC8C
:1033C00006909DF81F00B8B1FFE7029890ED000A43
:1033D000B5EE400AF1EE10FA0EDDFFE7029890ED2F
:1033E000001A43F2A460C2F2004090ED000A30EEF1
:1033F000010A80ED000AFFE706E043F2A461C2F291
:10340000004100200860FFE7239841F2E461C2F226
:10341000004108602098219A42F6F011C2F2004162
:103420004A6008600020C4F210700590FFE743F284
:10343000A460C2F2004090ED000A9FED621AB4EE63
:10344000410AF1EE10FA16DBFFE743F2A460C2F284
:10345000004090ED000A9FED5D1A30EE010A80ED0C
:10346000000A43F28461C2F20041486801304860BA
:1034700000F0AEF8DBE79DF89F0070B3FFE79DF822
:10348000710050B3FFE743F28460C2F20040407A1B
:1034900018B3FFE7012000BBFFE743F28460C2F2EC
:1034A0000040807AC8B9FFE7002028B9FFE72698D6
:1034B00014F092FD58B910E0029890ED200AB7EE92
:1034C000C00A51EC100B14F01FFD30B1FFE7029859
:1034D00090ED200A8DED010A04E09FED3B0A8DED91
:1034E000010AFFE79DED010A43F28460C2F2004049
:1034F00080ED000A0020ADF812009DF81F0098B181
:10350000FFE743F28460C2F2004090ED000AB5EE9E
:10351000400AF1EE10FA07D1FFE741F69860C2F2D7
:103520000040FEF7C9FFFFE743F28460C2F20040AB
:1035300090ED000AB5EE400AF1EE10FA07D1FFE770
:1035400043F24060C2F20040FFF70AF918E043F28C
:103550008460C2F2004090ED000ABDF97A0001EEED
:10356000100AF8EEC10A43F24060C2F200400BF0CC
:103570004FFCBDEEC00A10EE100AADF81200FFE7D6
:10358000BDF912000BF09CFFB8B1FFE741F698605F
:10359000C2F20040FEF790FF43F28461C2F20041A4
:1035A00000200090086043F24060C2F20040FFF744
:1035B000D7F800980BF084FFFFE728B080BD00BF6C
:1035C0000000C8420000104700000000000010C7C3
:1035D00080B50DF0F1FF80BD81B0EFF3108072B6C1
:1035E0000090FFE7FEE7000044F60C01C5F602017B
:1035F000086840F002000860FFE744F60400C5F6E2
:10360000020000688004002801D4FFE7F5E7704756
:1036100080B541F6F850C2F2004004F009F880BDD0
:1036200080B541F69860C2F2004004F001F880BD18
:1036300080B541F63870C2F2004003F0F9FF80BD5A
:1036400084B002900298406B009002980068D0F815
:1036500084004FF6FC718843009940EA810002998A
:103660000968C1F8840002980068D0F8840020F44A
:103670007F00029A1168926B40EA0240C1F8840010
:103680000298816B00980844009002980068D0F876
:1036900088006FF38F00009940EA81000299096861
:1036A000C1F8880002980068D0F8880020F4FE0075
:1036B000029A1168D26B40EA0240C1F88800029871
:1036C000C16B009800EB4100009002980068D0F8B0
:1036D000A0006FF38F00009940EA81000299096809
:1036E000C1F8A00002980068D0F8A00020F4FE0005
:1036F000029A1168126C40EA0240C1F8A0000299D7
:10370000086C496C009A00FB012000900298006848
:10371000D0F8B0006FF38F00009940EA8100029961
:103720000968C1F8B00002980068D0F8B00020F431
:10373000FE00029A1168926C40EA0240C1F8B000A3
:103740000299886CC96C009A00FB012000900298D5
:103750000068D0F8AC006FF38F00009940EA810058
:1037600002990968C1F8AC000299086D496D009A88
:1037700000FB0120009002980068D0F8F0006FF381
:103780008F00009940EA810002990968C1F8F000B1
:1037900002980068D0F8F00020F47C10029A1168BA
:1037A000926D40EA0240C1F8F0000298816D0098E5
:1037B00000EB4100009002980068D0F8C0006FF361
:1037C0008F00009940EA810002990968C1F8C000A1
:1037D00002980068D0F8C00020F47C10029A1168AA
:1037E000D26D40EA0240C1F8C00002980068D0F8EB
:1037F000C00020F07C50029A1168126E40EA02600C
:10380000C1F8C00002994A6B4AF60040C4F20000B9
:1038100000EB8200C86602998A6BC86E00EB8200DA
:1038200008670299CA6B086F00EBC20048670299EB
:103830000A6C4B6C486F5A4300EB82008867029910
:103840008A6CCB6C886F5A4300EB8200C867029980
:103850000A6D4B6DC86F5A4300EB8200C1F88000BF
:1038600002998A6DD1F8800000EBC200C1F8840093
:103870000299CA6D8B6ED1F884005A4300EB820026
:10388000C1F8880002990A6E8B6ED1F888005A43FD
:1038900000EB8200C1F890000298D0F890004DF241
:1038A000FD31C4F2000188420FD3FFE70299D1F83D
:1038B0009C0040F02000C1F89C000299032081F890
:1038C000980001208DF80F0017E00298C06E01905B
:1038D000FFE701980299D1F89010884208D2FFE7DB
:1038E000019900200860FFE7019804300190F0E79B
:1038F000FFE700208DF80F00FFE79DF80F0004B0F0
:10390000704700000000000088B007900691059203
:1039100004930698406848B9FFE7069801688268F2
:103920000069104340EA8140039009E0069801686D
:10393000826800691043084340F080400390FFE72D
:103940000698D0F820C0C16842698369C06940EA1E
:103950000C601843104340EA014002900798826EC1
:10396000D0F884000499514300EB81000190039842
:10397000019908600198043001900298019908604B
:1039800001980430019000200090FFE7009806990C
:10399000CA684DF20401C0F60101895C88420DD26B
:1039A000FFE7059800994058019908600198043094
:1039B0000190FFE7009804300090E7E708B07047F7
:1039C00080B582B00190FEF7FFF80090019943F2B4
:1039D0009062C2F20042106852684A600860009823
:1039E000FEF716FB02B080BD80B582B043F2906155
:1039F000C2F200410020486008600190FFE7019892
:103A000001281AD8FFE70198C0EBC00142F66C10FC
:103A1000C2F2004000EBC1009FED0C0ADFED0C0A82
:103A20009FED0C1A4FF47A614FF42F720BF084FA69
:103A3000FFE7019801300190E1E742F66871C2F2B8
:103A400000410020087002B080BD00BF33335340F6
:103A5000295C0F3D0000000080B596B008A90591D3
:103A600001460598159180ED0C0A0EA80BF060FD3B
:103A700004F0BEFE0D9001208DF8330000200B9065
:103A8000FFE70B98012828D8FFE70B9800EB4001CF
:103A90000EA800EB8100C079B0B1FFE70D980B993B
:103AA00001EB41020EA901EB82018968401A6428EA
:103AB0000AD8FFE70B9800EB40010EA800EB81004D
:103AC0008079502804D3FFE700208DF83300FFE70A
:103AD000FFE70B9801300B90D3E7159890F8510051
:103AE00038B9FFE743F29061C2F2004100208871CB
:103AF00012E043F29060C2F20040407958B1FFE713
:103B00009DF8330038B9FFE743F29061C2F20041FB
:103B100001208871FFE7FFE7159890F85110002009
:103B20000490B9B1FFE7159890F852100020049066
:103B300081B1FFE79DF833100020049051B1FFE7F9
:103B400043F29060C2F200408079B0FA80F0400900
:103B50000490FFE7049800F001008DF82B009DF819
:103B60002B0060BBFFE743F29060C2F20040407957
:103B700038B1FFE741F6F850C2F20040FEF79CFC76
:103B8000FFE743F29061C2F2004100200390087108
:103B90004871086042F66871C2F20041087042F64E
:103BA0006C10C2F200400290FEF7DAFD0298383045
:103BB000FEF7D6FD039908460BF032FD10E1002018
:103BC00028B9FFE7149814F013FA58B91EE00598C5
:103BD00090ED0C0AB7EEC00A51EC100B14F0A4F9EA
:103BE000A0B1FFE7059890ED0C0AB5EE400AF1EEA2
:103BF00010FA0BDDFFE7059890ED0C0A9FED791A9E
:103C0000B4EE410AF1EE10FA06DDFFE741F26F2053
:103C1000C3F603301490FFE7059943F29060C2F2B7
:103C200000400122427191ED0C1A90ED000A9FEDC7
:103C30006E2AA1EE020A80ED000A90ED000A9FEDC7
:103C40006B1AB4EE410AF1EE10FA0ADDFFE743F217
:103C50009061C2F200414CF20000C4F2C150086011
:103C6000FFE7059843F29061C2F2004191ED001A1E
:103C70009FED5F0A30EE410A80ED010A0968089164
:103C800090ED010ABDF93A0001EE100AF8EEC10A02
:103C900042F66C10C2F2004000900BF0B9F80599A2
:103CA0000098BDEEC00A10EE102AADF81E2091ED6E
:103CB000000ABDF9461001EE101AF8EEC10A3830BC
:103CC0000BF0A6F8BDEEC00A10EE100AADF81C000D
:103CD000BDF91E00BDF91C100BF0A2FC8DF81B00F5
:103CE0009DF81B100020002901903FD1FFE743F20F
:103CF0009060C2F2004090ED000A00209FED3B1A58
:103D0000B4EE410AF1EE10FA01902FD1FFE70598C9
:103D100090ED010ABDF93A0001EE100AB8EEC11AA1
:103D200030EE410AB0EEC00A00209FED321AB4EE28
:103D3000410AF1EE10FA019018DCFFE7059890EDCA
:103D4000000ABDF9460001EE100AB8EEC11A30EEC5
:103D5000410AB0EEC00A9FED271A0020B4EE410AD6
:103D6000F1EE10FAD8BF01200190FFE7019800F0B2
:103D700001008DF81A009DF81A0060B9FFE743F2C0
:103D80009061C2F200410020087142F66871C2F2EF
:103D90000041087024E042F66870C2F200400078EA
:103DA00068B9FFE70D9842F66471C2F200410860FD
:103DB00042F66871C2F2004101200870FFE70D98D9
:103DC00042F66471C2F200410968411A0020C72915
:103DD00088BF012043F29061C2F200410871FFE701
:103DE00016B080BD0AD7A33C0000FA4500C0C1450B
:103DF000000000800000964384B002900191ADF86D
:103E00000220029828B9FFE74FF6FF70ADF80E00C8
:103E100021E0FFE70198411E0191B8B1FFE7029848
:103E2000411C029100788DF80100BDF802109DF848
:103E300001004840C2B24DF2B410C0F6010030F8A3
:103E4000120080EA1120ADF80200E3E7BDF802009D
:103E5000ADF80E00FFE7BDF80E0004B0704700009B
:103E600083B0029001918DF80320FFE70198411E75
:103E7000019198B1FFE79DF8030002994A1C029254
:103E8000097848408DF802009DF802104CF6D06089
:103E9000C0F60100405C8DF80300E7E79DF80300E1
:103EA00003B070470000000080B584B04EF60000FB
:103EB000C1F6F170006803904EF60400C1F6F1708F
:103EC000006802904EF60800C1F6F170006801909B
:103ED0000199039808440390039888B1FFE7039879
:103EE00040F2E401C2F200410091023108220BF0DD
:103EF0004BF800990298123104220BF045F8FFE7C5
:103F000004B080BD0000000080B5A6B025900DF083
:103F1000D3F80CF0D9FEFEF753FC0DF0F9F941F699
:103F2000F850C2F20040FEF7FBFAA0B9FFE741F6F5
:103F30009860C2F20040FEF7F3FA60B9FFE741F67D
:103F40003870C2F20040FEF7EBFA20B9FFE7FDF748
:103F500003FF18B1FFE7FFF73FFBFFE741F6200043
:103F6000C2F200400068012114F066FEC00F18B1D3
:103F7000FFE7FFF731FBFFE714F012FF249004F096
:103F800037FC23902398229000208DF88700FFE7CC
:103F900004F02EFC209020982399401A00EE100A7D
:103FA000B8EE400A9FED501A80EE010A8DED1F0A0F
:103FB00020982390FDF7C0FF09A80DF031F89DF877
:103FC000870058B1FFE79DF8750038B9FFE741F663
:103FD0003870C2F20040FEF76FFAFFE79DF87500F7
:103FE0008DF887009DED1F0A09A8FEF7FDFB06A8C6
:103FF0000DF076F903A8FFF7BFF8FDF7B5FD0290C5
:104000009DED090AB0EE041A80EE010A9FED371A01
:1040100020EE010ABDEEC00A10EE100A40F2701246
:10402000C2F2004210809DED0A0AB0EE002A80EE36
:10403000020A20EE010ABDEEC00A10EE100A5080FE
:10404000002090809DED0D0AB1EE082A80EE020A54
:1040500020EE010ABDEEC00A10EE101A11819DED8E
:104060001B0A20EE010ABDEEC00A10EE101AD18024
:104070009DF8761051779DF82010019059B1FFE717
:104080009DED030A0020B5EE400AF1EE10FA18BFCC
:1040900001200190FFE7019800F00100002818BFFF
:1040A000022040F27011C2F20041C8769DED030A71
:1040B0000020B5EE400AF1EE10FA18BF0120887317
:1040C0000298FDF781FF20982299401A0A2805D30B
:1040D000FFE720982290FEF787F8FFE724A8022147
:1040E00000F006F854E700BF00007A4400002544C1
:1040F00080B586B0059004910498009014F064FE99
:1041000001460098484300F2E73044F6D351C1F22B
:104110006201A0FB011080090390039818B9FFE722
:1041200001200390FFE70598006803990844029076
:1041300014F036FE019002980199401A002805DC1F
:10414000FFE70198039908440290FFE70298059958
:104150000860029814F000FD06B080BD0000000069
:1041600080B541F62000C2F2004000680121032220
:104170004FF0FF3314F0A4FDC00F18B1FFE7FFF7B5
:104180002BFAFFE780BD000087B0069005910492EE
:1041900000208DF80F001F2002909DF81400C0072A
:1041A00020B9FFE701208DF80F004BE0FFE70299EF
:1041B000481E02900020019051B1FFE70598029936
:1041C00001F01F0120FA01F1012088430190FFE76F
:1041D0000198C00708B1FFE7E9E7049800901828A4
:1041E0002BD80099DFE801F0282929292929292934
:1041F0001F2929292929292916292929292929294C
:104200000D000298072804D3FFE701208DF80F0066
:10421000FFE716E00298082804D3FFE701208DF895
:104220000F00FFE70DE00298102804D3FFE70120FC
:104230008DF80F00FFE704E003E001208DF80F0088
:10424000FFE7FFE79DF80F0078B9FFE705980699AB
:104250000968486106980068806820F01800049991
:104260000843069909688860FFE79DF80F0007B0CA
:10427000704700000000000080B582B000900098F8
:1042800020B9FFE701208DF8070057E00098407F34
:1042900038B9FFE7009900200877009800F054F83B
:1042A000FFE70099022048770098007980B9FFE77E
:1042B0000098016841F6B750C0F2C14048610098CB
:1042C0000068806820F018000099096888600BE099
:1042D00000988168C268FFF757FF20B1FFE701200F
:1042E0008DF807002AE0FFE70098407930B9FFE732
:1042F000009801684FF0FF30086104E00098016801
:1043000000690861FFE700980068806820F060009D
:10431000009A1168526910438860009800688068AC
:1043200020F08000009A116892691043886000991B
:104330000120487700208DF80700FFE79DF807006F
:1043400002B080BD0000000082B0019001980068BA
:1043500044F60041C5F60201884210D1FFE7FFE7AD
:1043600044F2E040C5F60200016841F4002101601A
:10437000006800F4002000900098FFE7FFE702B01B
:10438000704700000000000080B58AB0089004F07B
:104390002FFA0490089828B9FFE701208DF827002C
:1043A00000F0AABC089890F8350002280ED0FFE76C
:1043B000089980204865FFE70899002081F83400BB
:1043C000FFE701208DF8270000F096BC08980168EF
:1043D00001201022C4F202029142039000F0A38057
:1043E000FFE70898016801202822C4F202029142E6
:1043F000039000F09880FFE70898016801204022B0
:10440000C4F202029142039000F08D80FFE7089809
:10441000016801205822C4F202029142039000F088
:104420008280FFE70898016801207022C4F202022E
:104430009142039077D0FFE7089801680120882215
:10444000C4F20202914203906DD0FFE70898016820
:104450000120A022C4F202029142039063D0FFE740
:10446000089801680120B822C4F202029142039028
:1044700059D0FFE708980168012040F21042C4F2C9
:104480000202914203904ED0FFE708980168012094
:1044900040F22842C4F202029142039043D0FFE767
:1044A00008980168012040F24042C4F202029142A1
:1044B000039038D0FFE708980168012040F2584285
:1044C000C4F20202914203902DD0FFE708980168E0
:1044D000012040F27042C4F202029142039022D0C5
:1044E000FFE708980168012040F28842C4F2020206
:1044F0009142039017D0FFE708980168012040F22D
:10450000A042C4F20202914203900CD0FFE7089847
:1045100000684FF64831CBF6FD710844B0FA80F0E0
:1045200040090390FFE70398C00780B1FFE70898B0
:104530000168086820F01E00086008980168486952
:1045400020F08000486108980068059009E008980C
:104550000168086820F00E0008600898006805905F
:10456000FFE70898016801201022C4F2020291427C
:10457000029000F00381FFE70898016801202822DB
:10458000C4F202029142029000F0F880FFE708981E
:10459000016801204022C4F202029142029000F020
:1045A000ED80FFE70898016801205822C4F202025A
:1045B0009142029000F0E280FFE708980168012034
:1045C0007022C4F202029142029000F0D780FFE70D
:1045D0000898016801208822C4F2020291420290E8
:1045E00000F0CC80FFE7089801680120A022C4F207
:1045F00002029142029000F0C180FFE70898016832
:104600000120B822C4F202029142029000F0B6806A
:10461000FFE708980168012040F21042C4F202024C
:104620009142029000F0AA80FFE7089801680120FB
:1046300040F22842C4F202029142029000F09E80B1
:10464000FFE708980168012040F24042C4F20202EC
:104650009142029000F09280FFE7089801680120E3
:1046600040F25842C4F202029142029000F0868069
:10467000FFE708980168012040F27042C4F202028C
:10468000914202907AD0FFE708980168012040F239
:104690008842C4F20202914202906FD0FFE708986C
:1046A0000168012040F2A042C4F20202914202904D
:1046B00064D0FFE708980168012040F2B842C4F2D4
:1046C00002029142029059D0FFE708980168012048
:1046D00045F20842C5F60202914202904ED0FFE731
:1046E00008980168012045F21C42C5F60202914279
:1046F000029043D0FFE708980168012045F230425C
:10470000C5F602029142029038D0FFE7089801688E
:10471000012045F24442C5F60202914202902DD09A
:10472000FFE708980168012045F25842C5F60202E9
:104730009142029022D0FFE708980168012045F2DB
:104740006C42C5F602029142029017D0FFE708982A
:104750000168012045F28042C5F6020291420290B2
:104760000CD0FFE7089800684AF66C31CAF2FD7178
:104770000844B0FA80F040090290FFE70298C007B1
:1047800038B1FFE70898016E086820F4807008606F
:10479000FFE7089800681021C4F20201884200F087
:1047A0008180FFE7089800682821C4F2020188424E
:1047B00078D0FFE7089800684021C4F202018842DF
:1047C00070D0FFE7089800685821C4F202018842BF
:1047D00068D0FFE7089800687021C4F2020188429F
:1047E00060D0FFE7089800688821C4F2020188427F
:1047F00058D0FFE708980068A021C4F2020188425F
:1048000050D0FFE708980068B821C4F2020188423E
:1048100048D0FFE70898006840F21041C4F2020156
:1048200088423FD0FFE70898006840F22841C4F270
:104830000201884236D0FFE70898006840F2404104
:10484000C4F2020188422DD0FFE70898006840F2C8
:104850005841C4F20201884224D0FFE7089800685A
:1048600040F27041C4F2020188421BD0FFE7089871
:10487000006840F28841C4F20201884212D0FFE78A
:104880000898006840F2A041C4F20201884209D0B1
:10489000FFE70898006840F2B841C4F2020188427C
:1048A00007D1FFE708980168086820F00100086058
:1048B00006E008980168086820F001000860FFE73A
:1048C000FFE705980068C007C8B1FFE703F090FF55
:1048D0000499401A062811D3FFE70899202048655B
:1048E0000899032081F83500FFE70899002081F836
:1048F0003400FFE701208DF82700FDE1E1E708988B
:10490000016801201022C4F202029142019000F0DD
:10491000A380FFE70898016801202822C4F2020260
:104920009142019000F09880FFE70898016801200B
:104930004022C4F202029142019000F08D80FFE714
:104940000898016801205822C4F2020291420190A5
:1049500000F08280FFE70898016801207022C4F20D
:1049600002029142019077D0FFE708980168012088
:104970008822C4F20202914201906DD0FFE70898AC
:1049800001680120A022C4F202029142019063D08A
:10499000FFE7089801680120B822C4F202029142A0
:1049A000019059D0FFE708980168012040F21042B9
:1049B000C4F20202914201904ED0FFE708980168CC
:1049C000012040F22842C4F202029142019043D0F9
:1049D000FFE708980168012040F24042C4F2020259
:1049E0009142019038D0FFE708980168012040F219
:1049F0005842C4F20202914201902DD0FFE708987C
:104A00000168012040F27042C4F20202914201901A
:104A100022D0FFE708980168012040F28842C4F2E2
:104A200002029142019017D0FFE708980168012027
:104A300040F2A042C4F20202914201900CD0FFE782
:104A4000089800684FF64831CBF6FD710844B0FA7B
:104A500080F040090190FFE70198C00760B1FFE7CF
:104A60000898806D07900898C06D00F01F013F20E6
:104A70008840079988600BE00898806D0690089838
:104A8000C06D00F01F010120884006994860FFE7D3
:104A90000898016801201022C4F20202914200909D
:104AA00000F00381FFE70898016801202822C4F282
:104AB00002029142009000F0F880FFE70898016838
:104AC00001204022C4F202029142009000F0ED80E9
:104AD000FFE70898016801205822C4F202029142BF
:104AE000009000F0E280FFE7089801680120702242
:104AF000C4F202029142009000F0D780FFE70898CC
:104B0000016801208822C4F202029142009000F064
:104B1000CC80FFE7089801680120A022C4F20202BD
:104B20009142009000F0C180FFE7089801680120E1
:104B3000B822C4F202029142009000F0B680FFE772
:104B400008980168012040F21042C4F2020291422A
:104B5000009000F0AA80FFE708980168012040F269
:104B60002842C4F202029142009000F09E80FFE7CA
:104B700008980168012040F24042C4F202029142CA
:104B8000009000F09280FFE708980168012040F251
:104B90005842C4F202029142009000F08680FFE782
:104BA00008980168012040F27042C4F2020291426A
:104BB00000907AD0FFE708980168012040F288420F
:104BC000C4F20202914200906FD0FFE7089801689A
:104BD000012040F2A042C4F202029142009064D04F
:104BE000FFE708980168012040F2B842C4F20202CF
:104BF0009142009059D0FFE708980168012045F2E2
:104C00000842C5F60202914200904ED0FFE7089894
:104C10000168012045F21C42C5F602029142009053
:104C200043D0FFE708980168012045F23042C5F6FD
:104C300002029142009038D0FFE7089801680120F5
:104C400045F24442C5F60202914200902DD0FFE7A2
:104C500008980168012045F25842C5F602029142C7
:104C6000009022D0FFE708980168012045F26C42CD
:104C7000C5F602029142009017D0FFE7089801683C
:104C8000012045F28042C5F60202914200900CD00C
:104C9000FFE7089800684AF66C31CAF2FD710844D3
:104CA000B0FA80F040090090FFE70098C007A0B17B
:104CB000FFE70898416E806E48600898C06E58B152
:104CC000FFE70898C16E086820F4807008600898B3
:104CD000016F406F4860FFE7FFE70899012081F806
:104CE0003500FFE70899002081F83400FFE7FFE76F
:104CF00000208DF82700FFE79DF827000AB080BD4F
:104D000080B586B00490049820B9FFE701208DF8A3
:104D1000170046E3049890F83500022807D0FFE713
:104D200004998020486501208DF8170039E3049824
:104D3000016801201022C4F202029142029000F0A8
:104D4000A380FFE70498016801202822C4F2020230
:104D50009142029000F09880FFE7049801680120DA
:104D60004022C4F202029142029000F08D80FFE7DF
:104D70000498016801205822C4F202029142029074
:104D800000F08280FFE70498016801207022C4F2DD
:104D900002029142029077D0FFE704980168012057
:104DA0008822C4F20202914202906DD0FFE704987B
:104DB00001680120A022C4F202029142029063D055
:104DC000FFE7049801680120B822C4F20202914270
:104DD000029059D0FFE704980168012040F2104288
:104DE000C4F20202914202904ED0FFE7049801689B
:104DF000012040F22842C4F202029142029043D0C4
:104E0000FFE704980168012040F24042C4F2020228
:104E10009142029038D0FFE704980168012040F2E7
:104E20005842C4F20202914202902DD0FFE704984A
:104E30000168012040F27042C4F2020291420290E5
:104E400022D0FFE704980168012040F28842C4F2B2
:104E500002029142029017D0FFE7049801680120F6
:104E600040F2A042C4F20202914202900CD0FFE74D
:104E7000049800684FF64831CBF6FD710844B0FA4B
:104E800080F040090290FFE70298C007002800F078
:104E90009D80FFE70499042081F83500049800689C
:104EA0001021C4F20201884200F08180FFE70498DB
:104EB00000682821C4F20201884278D0FFE70498F4
:104EC00000684021C4F20201884270D0FFE70498D4
:104ED00000685821C4F20201884268D0FFE70498B4
:104EE00000687021C4F20201884260D0FFE7049894
:104EF00000688821C4F20201884258D0FFE7049874
:104F00000068A021C4F20201884250D0FFE7049853
:104F10000068B821C4F20201884248D0FFE7049833
:104F2000006840F21041C4F2020188423FD0FFE71E
:104F30000498006840F22841C4F20201884236D049
:104F4000FFE70498006840F24041C4F20201884241
:104F50002DD0FFE70498006840F25841C4F20201E6
:104F6000884224D0FFE70498006840F27041C4F200
:104F7000020188421BD0FFE70498006840F2884194
:104F8000C4F20201884212D0FFE70498006840F2A0
:104F9000A041C4F20201884209D0FFE704980068EA
:104FA00040F2B841C4F20201884207D1FFE70498F9
:104FB0000168086820F00100086006E004980168B4
:104FC000086820F001000860FFE7E5E10498016847
:104FD000086820F00E000860049800681021C4F2F0
:104FE0000201884200F08180FFE7049800682821D0
:104FF000C4F20201884278D0FFE70498006840219B
:10500000C4F20201884270D0FFE70498006858217A
:10501000C4F20201884268D0FFE70498006870215A
:10502000C4F20201884260D0FFE70498006888213A
:10503000C4F20201884258D0FFE704980068A0211A
:10504000C4F20201884250D0FFE704980068B821FA
:10505000C4F20201884248D0FFE70498006840F299
:105060001041C4F2020188423FD0FFE70498006873
:1050700040F22841C4F20201884236D0FFE704988A
:10508000006840F24041C4F2020188422DD0FFE79F
:105090000498006840F25841C4F20201884224D0CA
:1050A000FFE70498006840F27041C4F202018842B0
:1050B0001BD0FFE70498006840F28841C4F2020167
:1050C000884212D0FFE70498006840F2A041C4F281
:1050D0000201884209D0FFE70498006840F2B84115
:1050E000C4F20201884207D1FFE70498016808680A
:1050F00020F00100086006E004980168086820F0CC
:1051000001000860FFE70498016801201022C4F242
:1051100002029142019000F00381FFE704980168C8
:1051200001202822C4F202029142019000F0F8808E
:10513000FFE70498016801204022C4F20202914274
:10514000019000F0ED80FFE70498016801205822EB
:10515000C4F202029142019000F0E280FFE704985D
:10516000016801207022C4F202029142019000F015
:10517000D780FFE70498016801208822C4F2020268
:105180009142019000F0CC80FFE704980168012073
:10519000A022C4F202029142019000F0C180FFE718
:1051A000049801680120B822C4F2020291420190E1
:1051B00000F0B680FFE704980168012040F2104239
:1051C000C4F202029142019000F0AA80FFE7049825
:1051D0000168012040F22842C4F20202914201908B
:1051E00000F09E80FFE704980168012040F24042F1
:1051F000C4F202029142019000F09280FFE704980D
:105200000168012040F25842C4F20202914201902A
:1052100000F08680FFE704980168012040F27042A8
:10522000C4F20202914201907AD0FFE7049801682B
:10523000012040F28842C4F20202914201906FD0F4
:10524000FFE704980168012040F2A042C4F2020284
:105250009142019064D0FFE704980168012040F278
:10526000B842C4F202029142019059D0FFE704987B
:105270000168012045F20842C5F602029142019000
:105280004ED0FFE704980168012045F21C42C5F6A4
:1052900002029142019043D0FFE704980168012087
:1052A00045F23042C5F602029142019038D0FFE744
:1052B00004980168012045F24442C5F60202914279
:1052C00001902DD0FFE704980168012045F2584273
:1052D000C5F602029142019022D0FFE704980168CE
:1052E000012045F26C42C5F602029142019017D0AE
:1052F000FFE704980168012045F28042C5F60202EA
:10530000914201900CD0FFE7049800684AF66C3196
:10531000CAF2FD710844B0FA80F040090190FFE73D
:105320000198C00728B3FFE70498016E086820F4CD
:10533000807008600498806D03900498C06D00F040
:105340001F0101208840039948600498416E806ED7
:1053500048600498C06E58B1FFE70498C16E0868B1
:1053600020F4807008600498016F406F4860FFE788
:10537000FFE70499012081F83500FFE70499002038
:1053800081F83400FFE70498006D20B1FFE704982E
:10539000016D8847FFE7FFE7FFE700208DF8170062
:1053A000FFE79DF8170006B080BD00000000000078
:1053B00081B000900098406D01B07047000000007F
:1053C00080B590B00F9000200B9040F22800C2F200
:1053D0000040006848F2B511C1F64E31A0FB011043
:1053E000800A0A900F98806D09900F98806D089040
:1053F000099800680E90089800680D900F98016851
:1054000001201022C4F202029142079000F0A38012
:10541000FFE70F98016801202822C4F2020291429E
:10542000079000F09880FFE70F9801680120402264
:10543000C4F202029142079000F08D80FFE70F98BE
:10544000016801205822C4F202029142079000F044
:105450008280FFE70F98016801207022C4F20202E7
:105460009142079077D0FFE70F98016801208822CA
:10547000C4F20202914207906DD0FFE70F980168D5
:105480000120A022C4F202029142079063D0FFE7FC
:105490000F9801680120B822C4F2020291420790DD
:1054A00059D0FFE70F980168012040F21042C4F282
:1054B0000202914207904ED0FFE70F980168012049
:1054C00040F22842C4F202029142079043D0FFE723
:1054D0000F980168012040F24042C4F2020291425A
:1054E000079038D0FFE70F980168012040F258423A
:1054F000C4F20202914207902DD0FFE70F98016895
:10550000012040F27042C4F202029142079022D080
:10551000FFE70F980168012040F28842C4F20202BE
:105520009142079017D0FFE70F980168012040F2E1
:10553000A042C4F20202914207900CD0FFE70F98FC
:1055400000684FF64831CBF6FD710844B0FA80F0A0
:1055500040090790FFE70798C007002800F013856F
:10556000FFE70E980F99C96D01F01F01C8400007B1
:10557000002840F1B080FFE70F9800681021C4F2C6
:105580000201884200F08180FFE70F98006828211F
:10559000C4F20201884278D0FFE70F9800684021EA
:1055A000C4F20201884270D0FFE70F9800685821CA
:1055B000C4F20201884268D0FFE70F9800687021AA
:1055C000C4F20201884260D0FFE70F98006888218A
:1055D000C4F20201884258D0FFE70F980068A0216A
:1055E000C4F20201884250D0FFE70F980068B8214A
:1055F000C4F20201884248D0FFE70F98006840F2E9
:105600001041C4F2020188423FD0FFE70F980068C2
:1056100040F22841C4F20201884236D0FFE70F98D9
:10562000006840F24041C4F2020188422DD0FFE7F9
:105630000F98006840F25841C4F20201884224D019
:10564000FFE70F98006840F27041C4F202018842FF
:105650001BD0FFE70F98006840F28841C4F20201B6
:10566000884212D0FFE70F98006840F2A041C4F2D0
:105670000201884209D0FFE70F98006840F2B84164
:10568000C4F20201884207D1FFE70F980068006862
:1056900000F00400069006E00F980068006800F033
:1056A00008000690FFE70698A0B1FFE70F98016891
:1056B000086820F0040008600F98C06D00F01F011A
:1056C00008208840099988600F99486D40F00100D2
:1056D0004865FFE7FFE70E980F99C96D01F01F01BC
:1056E000C840C007002800F0A980FFE70F980068B5
:1056F0001021C4F20201884200F08180FFE70F9878
:1057000000682821C4F20201884278D0FFE70F9890
:1057100000684021C4F20201884270D0FFE70F9870
:1057200000685821C4F20201884268D0FFE70F9850
:1057300000687021C4F20201884260D0FFE70F9830
:1057400000688821C4F20201884258D0FFE70F9810
:105750000068A021C4F20201884250D0FFE70F98F0
:105760000068B821C4F20201884248D0FFE70F98D0
:10577000006840F21041C4F2020188423FD0FFE7C6
:105780000F98006840F22841C4F20201884236D0E6
:10579000FFE70F98006840F24041C4F202018842DE
:1057A0002DD0FFE70F98006840F25841C4F2020183
:1057B000884224D0FFE70F98006840F27041C4F29D
:1057C000020188421BD0FFE70F98006840F2884131
:1057D000C4F20201884212D0FFE70F98006840F23D
:1057E000A041C4F20201884209D0FFE70F98006887
:1057F00040F2B841C4F20201884207D1FFE70F9896
:105800000068406900F08000059005E00F9800688E
:10581000006800200590FFE7059870B1FFE70F983A
:10582000C06D00F01F0101208840099988600F9920
:10583000486D40F002004865FFE7FFE70E980F99BA
:10584000C96D01F01F01C8404007002840F1A98040
:10585000FFE70F9800681021C4F20201884200F0AF
:105860008180FFE70F9800682821C4F20201884276
:1058700078D0FFE70F9800684021C4F20201884207
:1058800070D0FFE70F9800685821C4F202018842E7
:1058900068D0FFE70F9800687021C4F202018842C7
:1058A00060D0FFE70F9800688821C4F202018842A7
:1058B00058D0FFE70F980068A021C4F20201884287
:1058C00050D0FFE70F980068B821C4F20201884267
:1058D00048D0FFE70F98006840F21041C4F202017F
:1058E00088423FD0FFE70F98006840F22841C4F299
:1058F0000201884236D0FFE70F98006840F240412D
:10590000C4F2020188422DD0FFE70F98006840F2F0
:105910005841C4F20201884224D0FFE70F98006882
:1059200040F27041C4F2020188421BD0FFE70F9899
:10593000006840F28841C4F20201884212D0FFE7B9
:105940000F98006840F2A041C4F20201884209D0D9
:10595000FFE70F98006840F2B841C4F202018842A4
:1059600007D1FFE70F980068006800F0020004907C
:1059700005E00F980068006800200490FFE7049895
:1059800070B1FFE70F98C06D00F01F010420884040
:10599000099988600F99486D40F004004865FFE759
:1059A000FFE70E980F99C96D01F01F01C840C006AE
:1059B000002840F1DE80FFE70F9800681021C4F254
:1059C0000201884200F08180FFE70F9800682821DB
:1059D000C4F20201884278D0FFE70F9800684021A6
:1059E000C4F20201884270D0FFE70F980068582186
:1059F000C4F20201884268D0FFE70F980068702166
:105A0000C4F20201884260D0FFE70F980068882145
:105A1000C4F20201884258D0FFE70F980068A02125
:105A2000C4F20201884250D0FFE70F980068B82105
:105A3000C4F20201884248D0FFE70F98006840F2A4
:105A40001041C4F2020188423FD0FFE70F9800687E
:105A500040F22841C4F20201884236D0FFE70F9895
:105A6000006840F24041C4F2020188422DD0FFE7B5
:105A70000F98006840F25841C4F20201884224D0D5
:105A8000FFE70F98006840F27041C4F202018842BB
:105A90001BD0FFE70F98006840F28841C4F2020172
:105AA000884212D0FFE70F98006840F2A041C4F28C
:105AB0000201884209D0FFE70F98006840F2B84120
:105AC000C4F20201884207D1FFE70F98006800681E
:105AD00000F00800039006E00F980068006800F0EE
